{
  "address": "0xe7f1725E7734CE288F8367e1Bb143E90bb3F0512",
  "abi": [
    {
      "inputs": [
        {
          "internalType": "address",
          "name": "_marketplace",
          "type": "address"
        }
      ],
      "stateMutability": "nonpayable",
      "type": "constructor"
    },
    {
      "anonymous": false,
      "inputs": [
        {
          "indexed": true,
          "internalType": "address",
          "name": "account",
          "type": "address"
        },
        {
          "indexed": true,
          "internalType": "address",
          "name": "operator",
          "type": "address"
        },
        {
          "indexed": false,
          "internalType": "bool",
          "name": "approved",
          "type": "bool"
        }
      ],
      "name": "ApprovalForAll",
      "type": "event"
    },
    {
      "anonymous": false,
      "inputs": [
        {
          "indexed": true,
          "internalType": "address",
          "name": "previousOwner",
          "type": "address"
        },
        {
          "indexed": true,
          "internalType": "address",
          "name": "newOwner",
          "type": "address"
        }
      ],
      "name": "OwnershipTransferred",
      "type": "event"
    },
    {
      "anonymous": false,
      "inputs": [
        {
          "indexed": true,
          "internalType": "address",
          "name": "operator",
          "type": "address"
        },
        {
          "indexed": true,
          "internalType": "address",
          "name": "from",
          "type": "address"
        },
        {
          "indexed": true,
          "internalType": "address",
          "name": "to",
          "type": "address"
        },
        {
          "indexed": false,
          "internalType": "uint256[]",
          "name": "ids",
          "type": "uint256[]"
        },
        {
          "indexed": false,
          "internalType": "uint256[]",
          "name": "values",
          "type": "uint256[]"
        }
      ],
      "name": "TransferBatch",
      "type": "event"
    },
    {
      "anonymous": false,
      "inputs": [
        {
          "indexed": true,
          "internalType": "address",
          "name": "operator",
          "type": "address"
        },
        {
          "indexed": true,
          "internalType": "address",
          "name": "from",
          "type": "address"
        },
        {
          "indexed": true,
          "internalType": "address",
          "name": "to",
          "type": "address"
        },
        {
          "indexed": false,
          "internalType": "uint256",
          "name": "id",
          "type": "uint256"
        },
        {
          "indexed": false,
          "internalType": "uint256",
          "name": "value",
          "type": "uint256"
        }
      ],
      "name": "TransferSingle",
      "type": "event"
    },
    {
      "anonymous": false,
      "inputs": [
        {
          "indexed": false,
          "internalType": "string",
          "name": "value",
          "type": "string"
        },
        {
          "indexed": true,
          "internalType": "uint256",
          "name": "id",
          "type": "uint256"
        }
      ],
      "name": "URI",
      "type": "event"
    },
    {
      "inputs": [],
      "name": "ONION",
      "outputs": [
        {
          "internalType": "uint256",
          "name": "",
          "type": "uint256"
        }
      ],
      "stateMutability": "view",
      "type": "function"
    },
    {
      "inputs": [],
      "name": "POTATO",
      "outputs": [
        {
          "internalType": "uint256",
          "name": "",
          "type": "uint256"
        }
      ],
      "stateMutability": "view",
      "type": "function"
    },
    {
      "inputs": [
        {
          "internalType": "address",
          "name": "account",
          "type": "address"
        },
        {
          "internalType": "uint256",
          "name": "id",
          "type": "uint256"
        }
      ],
      "name": "balanceOf",
      "outputs": [
        {
          "internalType": "uint256",
          "name": "",
          "type": "uint256"
        }
      ],
      "stateMutability": "view",
      "type": "function"
    },
    {
      "inputs": [
        {
          "internalType": "address[]",
          "name": "accounts",
          "type": "address[]"
        },
        {
          "internalType": "uint256[]",
          "name": "ids",
          "type": "uint256[]"
        }
      ],
      "name": "balanceOfBatch",
      "outputs": [
        {
          "internalType": "uint256[]",
          "name": "",
          "type": "uint256[]"
        }
      ],
      "stateMutability": "view",
      "type": "function"
    },
    {
      "inputs": [
        {
          "internalType": "address",
          "name": "account",
          "type": "address"
        },
        {
          "internalType": "uint256",
          "name": "id",
          "type": "uint256"
        },
        {
          "internalType": "uint256",
          "name": "value",
          "type": "uint256"
        }
      ],
      "name": "burn",
      "outputs": [],
      "stateMutability": "nonpayable",
      "type": "function"
    },
    {
      "inputs": [
        {
          "internalType": "address",
          "name": "account",
          "type": "address"
        },
        {
          "internalType": "uint256[]",
          "name": "ids",
          "type": "uint256[]"
        },
        {
          "internalType": "uint256[]",
          "name": "values",
          "type": "uint256[]"
        }
      ],
      "name": "burnBatch",
      "outputs": [],
      "stateMutability": "nonpayable",
      "type": "function"
    },
    {
      "inputs": [],
      "name": "contractURI",
      "outputs": [
        {
          "internalType": "string",
          "name": "",
          "type": "string"
        }
      ],
      "stateMutability": "pure",
      "type": "function"
    },
    {
      "inputs": [
        {
          "internalType": "address",
          "name": "account",
          "type": "address"
        },
        {
          "internalType": "address",
          "name": "operator",
          "type": "address"
        }
      ],
      "name": "isApprovedForAll",
      "outputs": [
        {
          "internalType": "bool",
          "name": "",
          "type": "bool"
        }
      ],
      "stateMutability": "view",
      "type": "function"
    },
    {
      "inputs": [],
      "name": "marketplace",
      "outputs": [
        {
          "internalType": "address",
          "name": "",
          "type": "address"
        }
      ],
      "stateMutability": "view",
      "type": "function"
    },
    {
      "inputs": [],
      "name": "owner",
      "outputs": [
        {
          "internalType": "address",
          "name": "",
          "type": "address"
        }
      ],
      "stateMutability": "view",
      "type": "function"
    },
    {
      "inputs": [],
      "name": "renounceOwnership",
      "outputs": [],
      "stateMutability": "nonpayable",
      "type": "function"
    },
    {
      "inputs": [
        {
          "internalType": "address",
          "name": "from",
          "type": "address"
        },
        {
          "internalType": "address",
          "name": "to",
          "type": "address"
        },
        {
          "internalType": "uint256[]",
          "name": "ids",
          "type": "uint256[]"
        },
        {
          "internalType": "uint256[]",
          "name": "amounts",
          "type": "uint256[]"
        },
        {
          "internalType": "bytes",
          "name": "data",
          "type": "bytes"
        }
      ],
      "name": "safeBatchTransferFrom",
      "outputs": [],
      "stateMutability": "nonpayable",
      "type": "function"
    },
    {
      "inputs": [
        {
          "internalType": "address",
          "name": "from",
          "type": "address"
        },
        {
          "internalType": "address",
          "name": "to",
          "type": "address"
        },
        {
          "internalType": "uint256",
          "name": "id",
          "type": "uint256"
        },
        {
          "internalType": "uint256",
          "name": "amount",
          "type": "uint256"
        },
        {
          "internalType": "bytes",
          "name": "data",
          "type": "bytes"
        }
      ],
      "name": "safeTransferFrom",
      "outputs": [],
      "stateMutability": "nonpayable",
      "type": "function"
    },
    {
      "inputs": [
        {
          "internalType": "address",
          "name": "operator",
          "type": "address"
        },
        {
          "internalType": "bool",
          "name": "approved",
          "type": "bool"
        }
      ],
      "name": "setApprovalForAll",
      "outputs": [],
      "stateMutability": "nonpayable",
      "type": "function"
    },
    {
      "inputs": [
        {
          "internalType": "bytes4",
          "name": "interfaceId",
          "type": "bytes4"
        }
      ],
      "name": "supportsInterface",
      "outputs": [
        {
          "internalType": "bool",
          "name": "",
          "type": "bool"
        }
      ],
      "stateMutability": "view",
      "type": "function"
    },
    {
      "inputs": [
        {
          "internalType": "address",
          "name": "newOwner",
          "type": "address"
        }
      ],
      "name": "transferOwnership",
      "outputs": [],
      "stateMutability": "nonpayable",
      "type": "function"
    },
    {
      "inputs": [
        {
          "internalType": "uint256",
          "name": "token_id",
          "type": "uint256"
        }
      ],
      "name": "uri",
      "outputs": [
        {
          "internalType": "string",
          "name": "",
          "type": "string"
        }
      ],
      "stateMutability": "pure",
      "type": "function"
    }
  ],
  "transactionHash": "0xc2e16d75bcb8c91729cc5a1ff856481008580c5dbef318953c5c75520dc169b8",
  "args": [
    "0x5FbDB2315678afecb367f032d93F642f64180aa3"
  ],
  "numDeployments": 1,
  "solcInputHash": "25cf724240b20518bddc48c18b56854c",
  "bytecode": "0x60806040523480156200001157600080fd5b506040516200474e3803806200474e8339818101604052810190620000379190620008cc565b6040518060800160405280604d815260200162004701604d913962000062816200011560201b60201c565b5062000083620000776200013160201b60201c565b6200013960201b60201c565b620000a8336000600a60405180602001604052806000815250620001ff60201b60201c565b620000cd336001600560405180602001604052806000815250620001ff60201b60201c565b80600460006101000a81548173ffffffffffffffffffffffffffffffffffffffff021916908373ffffffffffffffffffffffffffffffffffffffff1602179055505062001002565b80600290805190602001906200012d929190620007a8565b5050565b600033905090565b6000600360009054906101000a900473ffffffffffffffffffffffffffffffffffffffff16905081600360006101000a81548173ffffffffffffffffffffffffffffffffffffffff021916908373ffffffffffffffffffffffffffffffffffffffff1602179055508173ffffffffffffffffffffffffffffffffffffffff168173ffffffffffffffffffffffffffffffffffffffff167f8be0079c531659141344cd1fd0a4f28419497f9722a3daafe3b4186f6b6457e060405160405180910390a35050565b600073ffffffffffffffffffffffffffffffffffffffff168473ffffffffffffffffffffffffffffffffffffffff16141562000272576040517f08c379a0000000000000000000000000000000000000000000000000000000008152600401620002699062000985565b60405180910390fd5b6000620002846200013160201b60201c565b905060006200029985620003e760201b60201c565b90506000620002ae85620003e760201b60201c565b9050620002c7836000898585896200046860201b60201c565b8460008088815260200190815260200160002060008973ffffffffffffffffffffffffffffffffffffffff1673ffffffffffffffffffffffffffffffffffffffff1681526020019081526020016000206000828254620003289190620009e0565b925050819055508673ffffffffffffffffffffffffffffffffffffffff16600073ffffffffffffffffffffffffffffffffffffffff168473ffffffffffffffffffffffffffffffffffffffff167fc3d58168c5ae7397731d063d5bbf3d657854427343f4c083240f7aacaa2d0f628989604051620003a892919062000a4e565b60405180910390a4620003c7836000898585896200054960201b60201c565b620003de836000898989896200055160201b60201c565b50505050505050565b60606000600167ffffffffffffffff81111562000409576200040862000a7b565b5b604051908082528060200260200182016040528015620004385781602001602082028036833780820191505090505b509050828160008151811062000453576200045262000aaa565b5b60200260200101818152505080915050919050565b600460009054906101000a900473ffffffffffffffffffffffffffffffffffffffff1673ffffffffffffffffffffffffffffffffffffffff163373ffffffffffffffffffffffffffffffffffffffff161480620004ff5750620004d06200075b60201b60201c565b73ffffffffffffffffffffffffffffffffffffffff163373ffffffffffffffffffffffffffffffffffffffff16145b62000541576040517f08c379a0000000000000000000000000000000000000000000000000000000008152600401620005389062000b29565b60405180910390fd5b505050505050565b505050505050565b6200057d8473ffffffffffffffffffffffffffffffffffffffff166200078560201b62000a741760201c565b1562000753578373ffffffffffffffffffffffffffffffffffffffff1663f23a6e6187878686866040518663ffffffff1660e01b8152600401620005c695949392919062000c00565b602060405180830381600087803b158015620005e157600080fd5b505af19250505080156200061557506040513d601f19601f8201168201806040525081019062000612919062000cc1565b60015b620006c7576200062462000d00565b806308c379a014156200068857506200063c62000d5b565b806200064957506200068a565b806040517f08c379a00000000000000000000000000000000000000000000000000000000081526004016200067f919062000e49565b60405180910390fd5b505b6040517f08c379a0000000000000000000000000000000000000000000000000000000008152600401620006be9062000ee3565b60405180910390fd5b63f23a6e6160e01b7bffffffffffffffffffffffffffffffffffffffffffffffffffffffff1916817bffffffffffffffffffffffffffffffffffffffffffffffffffffffff19161462000751576040517f08c379a0000000000000000000000000000000000000000000000000000000008152600401620007489062000f7b565b60405180910390fd5b505b505050505050565b6000600360009054906101000a900473ffffffffffffffffffffffffffffffffffffffff16905090565b6000808273ffffffffffffffffffffffffffffffffffffffff163b119050919050565b828054620007b69062000fcc565b90600052602060002090601f016020900481019282620007da576000855562000826565b82601f10620007f557805160ff191683800117855562000826565b8280016001018555821562000826579182015b828111156200082557825182559160200191906001019062000808565b5b50905062000835919062000839565b5090565b5b80821115620008545760008160009055506001016200083a565b5090565b6000604051905090565b600080fd5b600073ffffffffffffffffffffffffffffffffffffffff82169050919050565b6000620008948262000867565b9050919050565b620008a68162000887565b8114620008b257600080fd5b50565b600081519050620008c6816200089b565b92915050565b600060208284031215620008e557620008e462000862565b5b6000620008f584828501620008b5565b91505092915050565b600082825260208201905092915050565b7f455243313135353a206d696e7420746f20746865207a65726f2061646472657360008201527f7300000000000000000000000000000000000000000000000000000000000000602082015250565b60006200096d602183620008fe565b91506200097a826200090f565b604082019050919050565b60006020820190508181036000830152620009a0816200095e565b9050919050565b6000819050919050565b7f4e487b7100000000000000000000000000000000000000000000000000000000600052601160045260246000fd5b6000620009ed82620009a7565b9150620009fa83620009a7565b9250827fffffffffffffffffffffffffffffffffffffffffffffffffffffffffffffffff0382111562000a325762000a31620009b1565b5b828201905092915050565b62000a4881620009a7565b82525050565b600060408201905062000a65600083018562000a3d565b62000a74602083018462000a3d565b9392505050565b7f4e487b7100000000000000000000000000000000000000000000000000000000600052604160045260246000fd5b7f4e487b7100000000000000000000000000000000000000000000000000000000600052603260045260246000fd5b7f596f7520616c7265616479207573652069742100000000000000000000000000600082015250565b600062000b11601383620008fe565b915062000b1e8262000ad9565b602082019050919050565b6000602082019050818103600083015262000b448162000b02565b9050919050565b62000b568162000887565b82525050565b600081519050919050565b600082825260208201905092915050565b60005b8381101562000b9857808201518184015260208101905062000b7b565b8381111562000ba8576000848401525b50505050565b6000601f19601f8301169050919050565b600062000bcc8262000b5c565b62000bd8818562000b67565b935062000bea81856020860162000b78565b62000bf58162000bae565b840191505092915050565b600060a08201905062000c17600083018862000b4b565b62000c26602083018762000b4b565b62000c35604083018662000a3d565b62000c44606083018562000a3d565b818103608083015262000c58818462000bbf565b90509695505050505050565b60007fffffffff0000000000000000000000000000000000000000000000000000000082169050919050565b62000c9b8162000c64565b811462000ca757600080fd5b50565b60008151905062000cbb8162000c90565b92915050565b60006020828403121562000cda5762000cd962000862565b5b600062000cea8482850162000caa565b91505092915050565b60008160e01c9050919050565b600060033d111562000d225760046000803e62000d1f60005162000cf3565b90505b90565b62000d308262000bae565b810181811067ffffffffffffffff8211171562000d525762000d5162000a7b565b5b80604052505050565b600060443d101562000d6d5762000dfa565b62000d7762000858565b60043d036004823e80513d602482011167ffffffffffffffff8211171562000da157505062000dfa565b808201805167ffffffffffffffff81111562000dc1575050505062000dfa565b80602083010160043d03850181111562000de057505050505062000dfa565b62000df18260200185018662000d25565b82955050505050505b90565b600081519050919050565b600062000e158262000dfd565b62000e218185620008fe565b935062000e3381856020860162000b78565b62000e3e8162000bae565b840191505092915050565b6000602082019050818103600083015262000e65818462000e08565b905092915050565b7f455243313135353a207472616e7366657220746f206e6f6e204552433131353560008201527f526563656976657220696d706c656d656e746572000000000000000000000000602082015250565b600062000ecb603483620008fe565b915062000ed88262000e6d565b604082019050919050565b6000602082019050818103600083015262000efe8162000ebc565b9050919050565b7f455243313135353a204552433131353552656365697665722072656a6563746560008201527f6420746f6b656e73000000000000000000000000000000000000000000000000602082015250565b600062000f63602883620008fe565b915062000f708262000f05565b604082019050919050565b6000602082019050818103600083015262000f968162000f54565b9050919050565b7f4e487b7100000000000000000000000000000000000000000000000000000000600052602260045260246000fd5b6000600282049050600182168062000fe557607f821691505b6020821081141562000ffc5762000ffb62000f9d565b5b50919050565b6136ef80620010126000396000f3fe608060405234801561001057600080fd5b506004361061010a5760003560e01c80638da5cb5b116100a2578063e8a3d48511610071578063e8a3d485146102a5578063e985e9c5146102c3578063f242432a146102f3578063f2fde38b1461030f578063f5298aca1461032b5761010a565b80638da5cb5b1461022f5780639f2685f71461024d578063a22cb4651461026b578063abc8c7af146102875761010a565b80634e1273f4116100de5780634e1273f4146101bb5780636b20c454146101eb578063715018a614610207578063734df79d146102115761010a565b8062fdd58e1461010f57806301ffc9a71461013f5780630e89341c1461016f5780632eb2c2d61461019f575b600080fd5b61012960048036038101906101249190611fbc565b610347565b604051610136919061200b565b60405180910390f35b6101596004803603810190610154919061207e565b610410565b60405161016691906120c6565b60405180910390f35b610189600480360381019061018491906120e1565b6104f2565b60405161019691906121a7565b60405180910390f35b6101b960048036038101906101b491906123c6565b610523565b005b6101d560048036038101906101d09190612558565b6105c4565b6040516101e2919061268e565b60405180910390f35b610205600480360381019061020091906126b0565b6106dd565b005b61020f61077a565b005b61021961078e565b604051610226919061200b565b60405180910390f35b610237610793565b604051610244919061274a565b60405180910390f35b6102556107bd565b604051610262919061200b565b60405180910390f35b61028560048036038101906102809190612791565b6107c2565b005b61028f6107d8565b60405161029c919061274a565b60405180910390f35b6102ad6107fe565b6040516102ba91906121a7565b60405180910390f35b6102dd60048036038101906102d891906127d1565b61081e565b6040516102ea91906120c6565b60405180910390f35b61030d60048036038101906103089190612811565b6108b2565b005b610329600480360381019061032491906128a8565b610953565b005b610345600480360381019061034091906128d5565b6109d7565b005b60008073ffffffffffffffffffffffffffffffffffffffff168373ffffffffffffffffffffffffffffffffffffffff1614156103b8576040517f08c379a00000000000000000000000000000000000000000000000000000000081526004016103af9061299a565b60405180910390fd5b60008083815260200190815260200160002060008473ffffffffffffffffffffffffffffffffffffffff1673ffffffffffffffffffffffffffffffffffffffff16815260200190815260200160002054905092915050565b60007fd9b67a26000000000000000000000000000000000000000000000000000000007bffffffffffffffffffffffffffffffffffffffffffffffffffffffff1916827bffffffffffffffffffffffffffffffffffffffffffffffffffffffff191614806104db57507f0e89341c000000000000000000000000000000000000000000000000000000007bffffffffffffffffffffffffffffffffffffffffffffffffffffffff1916827bffffffffffffffffffffffffffffffffffffffffffffffffffffffff1916145b806104eb57506104ea82610a97565b5b9050919050565b60606104fd82610b01565b60405160200161050d9190612ada565b6040516020818303038152906040529050919050565b61052b610c62565b73ffffffffffffffffffffffffffffffffffffffff168573ffffffffffffffffffffffffffffffffffffffff16148061057157506105708561056b610c62565b61081e565b5b6105b0576040517f08c379a00000000000000000000000000000000000000000000000000000000081526004016105a790612b79565b60405180910390fd5b6105bd8585858585610c6a565b5050505050565b6060815183511461060a576040517f08c379a000000000000000000000000000000000000000000000000000000000815260040161060190612c0b565b60405180910390fd5b6000835167ffffffffffffffff811115610627576106266121ce565b5b6040519080825280602002602001820160405280156106555781602001602082028036833780820191505090505b50905060005b84518110156106d2576106a285828151811061067a57610679612c2b565b5b602002602001015185838151811061069557610694612c2b565b5b6020026020010151610347565b8282815181106106b5576106b4612c2b565b5b602002602001018181525050806106cb90612c89565b905061065b565b508091505092915050565b6106e5610c62565b73ffffffffffffffffffffffffffffffffffffffff168373ffffffffffffffffffffffffffffffffffffffff16148061072b575061072a83610725610c62565b61081e565b5b61076a576040517f08c379a000000000000000000000000000000000000000000000000000000000815260040161076190612b79565b60405180910390fd5b610775838383610f8c565b505050565b61078261125b565b61078c60006112d9565b565b600081565b6000600360009054906101000a900473ffffffffffffffffffffffffffffffffffffffff16905090565b600181565b6107d46107cd610c62565b838361139f565b5050565b600460009054906101000a900473ffffffffffffffffffffffffffffffffffffffff1681565b606060405180608001604052806054815260200161366660549139905090565b6000600160008473ffffffffffffffffffffffffffffffffffffffff1673ffffffffffffffffffffffffffffffffffffffff16815260200190815260200160002060008373ffffffffffffffffffffffffffffffffffffffff1673ffffffffffffffffffffffffffffffffffffffff16815260200190815260200160002060009054906101000a900460ff16905092915050565b6108ba610c62565b73ffffffffffffffffffffffffffffffffffffffff168573ffffffffffffffffffffffffffffffffffffffff16148061090057506108ff856108fa610c62565b61081e565b5b61093f576040517f08c379a000000000000000000000000000000000000000000000000000000000815260040161093690612b79565b60405180910390fd5b61094c858585858561150c565b5050505050565b61095b61125b565b600073ffffffffffffffffffffffffffffffffffffffff168173ffffffffffffffffffffffffffffffffffffffff1614156109cb576040517f08c379a00000000000000000000000000000000000000000000000000000000081526004016109c290612d44565b60405180910390fd5b6109d4816112d9565b50565b6109df610c62565b73ffffffffffffffffffffffffffffffffffffffff168373ffffffffffffffffffffffffffffffffffffffff161480610a255750610a2483610a1f610c62565b61081e565b5b610a64576040517f08c379a0000000000000000000000000000000000000000000000000000000008152600401610a5b90612b79565b60405180910390fd5b610a6f8383836117a8565b505050565b6000808273ffffffffffffffffffffffffffffffffffffffff163b119050919050565b60007f01ffc9a7000000000000000000000000000000000000000000000000000000007bffffffffffffffffffffffffffffffffffffffffffffffffffffffff1916827bffffffffffffffffffffffffffffffffffffffffffffffffffffffff1916149050919050565b60606000821415610b49576040518060400160405280600181526020017f30000000000000000000000000000000000000000000000000000000000000008152509050610c5d565b600082905060005b60008214610b7b578080610b6490612c89565b915050600a82610b749190612d93565b9150610b51565b60008167ffffffffffffffff811115610b9757610b966121ce565b5b6040519080825280601f01601f191660200182016040528015610bc95781602001600182028036833780820191505090505b5090505b60008514610c5657600182610be29190612dc4565b9150600a85610bf19190612df8565b6030610bfd9190612e29565b60f81b818381518110610c1357610c12612c2b565b5b60200101907effffffffffffffffffffffffffffffffffffffffffffffffffffffffffffff1916908160001a905350600a85610c4f9190612d93565b9450610bcd565b8093505050505b919050565b600033905090565b8151835114610cae576040517f08c379a0000000000000000000000000000000000000000000000000000000008152600401610ca590612ef1565b60405180910390fd5b600073ffffffffffffffffffffffffffffffffffffffff168473ffffffffffffffffffffffffffffffffffffffff161415610d1e576040517f08c379a0000000000000000000000000000000000000000000000000000000008152600401610d1590612f83565b60405180910390fd5b6000610d28610c62565b9050610d388187878787876119ef565b60005b8451811015610ee9576000858281518110610d5957610d58612c2b565b5b602002602001015190506000858381518110610d7857610d77612c2b565b5b60200260200101519050600080600084815260200190815260200160002060008b73ffffffffffffffffffffffffffffffffffffffff1673ffffffffffffffffffffffffffffffffffffffff16815260200190815260200160002054905081811015610e19576040517f08c379a0000000000000000000000000000000000000000000000000000000008152600401610e1090613015565b60405180910390fd5b81810360008085815260200190815260200160002060008c73ffffffffffffffffffffffffffffffffffffffff1673ffffffffffffffffffffffffffffffffffffffff168152602001908152602001600020819055508160008085815260200190815260200160002060008b73ffffffffffffffffffffffffffffffffffffffff1673ffffffffffffffffffffffffffffffffffffffff1681526020019081526020016000206000828254610ece9190612e29565b9250508190555050505080610ee290612c89565b9050610d3b565b508473ffffffffffffffffffffffffffffffffffffffff168673ffffffffffffffffffffffffffffffffffffffff168273ffffffffffffffffffffffffffffffffffffffff167f4a39dc06d4c0dbc64b70af90fd698a233a518aa5d07e595d983b8c0526c8f7fb8787604051610f60929190613035565b60405180910390a4610f76818787878787611ac4565b610f84818787878787611acc565b505050505050565b600073ffffffffffffffffffffffffffffffffffffffff168373ffffffffffffffffffffffffffffffffffffffff161415610ffc576040517f08c379a0000000000000000000000000000000000000000000000000000000008152600401610ff3906130de565b60405180910390fd5b8051825114611040576040517f08c379a000000000000000000000000000000000000000000000000000000000815260040161103790612ef1565b60405180910390fd5b600061104a610c62565b905061106a818560008686604051806020016040528060008152506119ef565b60005b83518110156111b757600084828151811061108b5761108a612c2b565b5b6020026020010151905060008483815181106110aa576110a9612c2b565b5b60200260200101519050600080600084815260200190815260200160002060008973ffffffffffffffffffffffffffffffffffffffff1673ffffffffffffffffffffffffffffffffffffffff1681526020019081526020016000205490508181101561114b576040517f08c379a000000000000000000000000000000000000000000000000000000000815260040161114290613170565b60405180910390fd5b81810360008085815260200190815260200160002060008a73ffffffffffffffffffffffffffffffffffffffff1673ffffffffffffffffffffffffffffffffffffffff1681526020019081526020016000208190555050505080806111af90612c89565b91505061106d565b50600073ffffffffffffffffffffffffffffffffffffffff168473ffffffffffffffffffffffffffffffffffffffff168273ffffffffffffffffffffffffffffffffffffffff167f4a39dc06d4c0dbc64b70af90fd698a233a518aa5d07e595d983b8c0526c8f7fb868660405161122f929190613035565b60405180910390a461125581856000868660405180602001604052806000815250611ac4565b50505050565b611263610c62565b73ffffffffffffffffffffffffffffffffffffffff16611281610793565b73ffffffffffffffffffffffffffffffffffffffff16146112d7576040517f08c379a00000000000000000000000000000000000000000000000000000000081526004016112ce906131dc565b60405180910390fd5b565b6000600360009054906101000a900473ffffffffffffffffffffffffffffffffffffffff16905081600360006101000a81548173ffffffffffffffffffffffffffffffffffffffff021916908373ffffffffffffffffffffffffffffffffffffffff1602179055508173ffffffffffffffffffffffffffffffffffffffff168173ffffffffffffffffffffffffffffffffffffffff167f8be0079c531659141344cd1fd0a4f28419497f9722a3daafe3b4186f6b6457e060405160405180910390a35050565b8173ffffffffffffffffffffffffffffffffffffffff168373ffffffffffffffffffffffffffffffffffffffff16141561140e576040517f08c379a00000000000000000000000000000000000000000000000000000000081526004016114059061326e565b60405180910390fd5b80600160008573ffffffffffffffffffffffffffffffffffffffff1673ffffffffffffffffffffffffffffffffffffffff16815260200190815260200160002060008473ffffffffffffffffffffffffffffffffffffffff1673ffffffffffffffffffffffffffffffffffffffff16815260200190815260200160002060006101000a81548160ff0219169083151502179055508173ffffffffffffffffffffffffffffffffffffffff168373ffffffffffffffffffffffffffffffffffffffff167f17307eab39ab6107e8899845ad3d59bd9653f200f220920489ca2b5937696c31836040516114ff91906120c6565b60405180910390a3505050565b600073ffffffffffffffffffffffffffffffffffffffff168473ffffffffffffffffffffffffffffffffffffffff16141561157c576040517f08c379a000000000000000000000000000000000000000000000000000000000815260040161157390612f83565b60405180910390fd5b6000611586610c62565b9050600061159385611cb3565b905060006115a085611cb3565b90506115b08389898585896119ef565b600080600088815260200190815260200160002060008a73ffffffffffffffffffffffffffffffffffffffff1673ffffffffffffffffffffffffffffffffffffffff16815260200190815260200160002054905085811015611647576040517f08c379a000000000000000000000000000000000000000000000000000000000815260040161163e90613015565b60405180910390fd5b85810360008089815260200190815260200160002060008b73ffffffffffffffffffffffffffffffffffffffff1673ffffffffffffffffffffffffffffffffffffffff168152602001908152602001600020819055508560008089815260200190815260200160002060008a73ffffffffffffffffffffffffffffffffffffffff1673ffffffffffffffffffffffffffffffffffffffff16815260200190815260200160002060008282546116fc9190612e29565b925050819055508773ffffffffffffffffffffffffffffffffffffffff168973ffffffffffffffffffffffffffffffffffffffff168573ffffffffffffffffffffffffffffffffffffffff167fc3d58168c5ae7397731d063d5bbf3d657854427343f4c083240f7aacaa2d0f628a8a60405161177992919061328e565b60405180910390a461178f848a8a86868a611ac4565b61179d848a8a8a8a8a611d2d565b505050505050505050565b600073ffffffffffffffffffffffffffffffffffffffff168373ffffffffffffffffffffffffffffffffffffffff161415611818576040517f08c379a000000000000000000000000000000000000000000000000000000000815260040161180f906130de565b60405180910390fd5b6000611822610c62565b9050600061182f84611cb3565b9050600061183c84611cb3565b905061185c838760008585604051806020016040528060008152506119ef565b600080600087815260200190815260200160002060008873ffffffffffffffffffffffffffffffffffffffff1673ffffffffffffffffffffffffffffffffffffffff168152602001908152602001600020549050848110156118f3576040517f08c379a00000000000000000000000000000000000000000000000000000000081526004016118ea90613170565b60405180910390fd5b84810360008088815260200190815260200160002060008973ffffffffffffffffffffffffffffffffffffffff1673ffffffffffffffffffffffffffffffffffffffff16815260200190815260200160002081905550600073ffffffffffffffffffffffffffffffffffffffff168773ffffffffffffffffffffffffffffffffffffffff168573ffffffffffffffffffffffffffffffffffffffff167fc3d58168c5ae7397731d063d5bbf3d657854427343f4c083240f7aacaa2d0f6289896040516119c092919061328e565b60405180910390a46119e684886000868660405180602001604052806000815250611ac4565b50505050505050565b600460009054906101000a900473ffffffffffffffffffffffffffffffffffffffff1673ffffffffffffffffffffffffffffffffffffffff163373ffffffffffffffffffffffffffffffffffffffff161480611a7d5750611a4e610793565b73ffffffffffffffffffffffffffffffffffffffff163373ffffffffffffffffffffffffffffffffffffffff16145b611abc576040517f08c379a0000000000000000000000000000000000000000000000000000000008152600401611ab390613303565b60405180910390fd5b505050505050565b505050505050565b611aeb8473ffffffffffffffffffffffffffffffffffffffff16610a74565b15611cab578373ffffffffffffffffffffffffffffffffffffffff1663bc197c8187878686866040518663ffffffff1660e01b8152600401611b31959493929190613378565b602060405180830381600087803b158015611b4b57600080fd5b505af1925050508015611b7c57506040513d601f19601f82011682018060405250810190611b7991906133f5565b60015b611c2257611b8861342f565b806308c379a01415611be55750611b9d613451565b80611ba85750611be7565b806040517f08c379a0000000000000000000000000000000000000000000000000000000008152600401611bdc91906121a7565b60405180910390fd5b505b6040517f08c379a0000000000000000000000000000000000000000000000000000000008152600401611c1990613559565b60405180910390fd5b63bc197c8160e01b7bffffffffffffffffffffffffffffffffffffffffffffffffffffffff1916817bffffffffffffffffffffffffffffffffffffffffffffffffffffffff191614611ca9576040517f08c379a0000000000000000000000000000000000000000000000000000000008152600401611ca0906135eb565b60405180910390fd5b505b505050505050565b60606000600167ffffffffffffffff811115611cd257611cd16121ce565b5b604051908082528060200260200182016040528015611d005781602001602082028036833780820191505090505b5090508281600081518110611d1857611d17612c2b565b5b60200260200101818152505080915050919050565b611d4c8473ffffffffffffffffffffffffffffffffffffffff16610a74565b15611f0c578373ffffffffffffffffffffffffffffffffffffffff1663f23a6e6187878686866040518663ffffffff1660e01b8152600401611d9295949392919061360b565b602060405180830381600087803b158015611dac57600080fd5b505af1925050508015611ddd57506040513d601f19601f82011682018060405250810190611dda91906133f5565b60015b611e8357611de961342f565b806308c379a01415611e465750611dfe613451565b80611e095750611e48565b806040517f08c379a0000000000000000000000000000000000000000000000000000000008152600401611e3d91906121a7565b60405180910390fd5b505b6040517f08c379a0000000000000000000000000000000000000000000000000000000008152600401611e7a90613559565b60405180910390fd5b63f23a6e6160e01b7bffffffffffffffffffffffffffffffffffffffffffffffffffffffff1916817bffffffffffffffffffffffffffffffffffffffffffffffffffffffff191614611f0a576040517f08c379a0000000000000000000000000000000000000000000000000000000008152600401611f01906135eb565b60405180910390fd5b505b505050505050565b6000604051905090565b600080fd5b600080fd5b600073ffffffffffffffffffffffffffffffffffffffff82169050919050565b6000611f5382611f28565b9050919050565b611f6381611f48565b8114611f6e57600080fd5b50565b600081359050611f8081611f5a565b92915050565b6000819050919050565b611f9981611f86565b8114611fa457600080fd5b50565b600081359050611fb681611f90565b92915050565b60008060408385031215611fd357611fd2611f1e565b5b6000611fe185828601611f71565b9250506020611ff285828601611fa7565b9150509250929050565b61200581611f86565b82525050565b60006020820190506120206000830184611ffc565b92915050565b60007fffffffff0000000000000000000000000000000000000000000000000000000082169050919050565b61205b81612026565b811461206657600080fd5b50565b60008135905061207881612052565b92915050565b60006020828403121561209457612093611f1e565b5b60006120a284828501612069565b91505092915050565b60008115159050919050565b6120c0816120ab565b82525050565b60006020820190506120db60008301846120b7565b92915050565b6000602082840312156120f7576120f6611f1e565b5b600061210584828501611fa7565b91505092915050565b600081519050919050565b600082825260208201905092915050565b60005b8381101561214857808201518184015260208101905061212d565b83811115612157576000848401525b50505050565b6000601f19601f8301169050919050565b60006121798261210e565b6121838185612119565b935061219381856020860161212a565b61219c8161215d565b840191505092915050565b600060208201905081810360008301526121c1818461216e565b905092915050565b600080fd5b7f4e487b7100000000000000000000000000000000000000000000000000000000600052604160045260246000fd5b6122068261215d565b810181811067ffffffffffffffff82111715612225576122246121ce565b5b80604052505050565b6000612238611f14565b905061224482826121fd565b919050565b600067ffffffffffffffff821115612264576122636121ce565b5b602082029050602081019050919050565b600080fd5b600061228d61228884612249565b61222e565b905080838252602082019050602084028301858111156122b0576122af612275565b5b835b818110156122d957806122c58882611fa7565b8452602084019350506020810190506122b2565b5050509392505050565b600082601f8301126122f8576122f76121c9565b5b813561230884826020860161227a565b91505092915050565b600080fd5b600067ffffffffffffffff821115612331576123306121ce565b5b61233a8261215d565b9050602081019050919050565b82818337600083830152505050565b600061236961236484612316565b61222e565b90508281526020810184848401111561238557612384612311565b5b612390848285612347565b509392505050565b600082601f8301126123ad576123ac6121c9565b5b81356123bd848260208601612356565b91505092915050565b600080600080600060a086880312156123e2576123e1611f1e565b5b60006123f088828901611f71565b955050602061240188828901611f71565b945050604086013567ffffffffffffffff81111561242257612421611f23565b5b61242e888289016122e3565b935050606086013567ffffffffffffffff81111561244f5761244e611f23565b5b61245b888289016122e3565b925050608086013567ffffffffffffffff81111561247c5761247b611f23565b5b61248888828901612398565b9150509295509295909350565b600067ffffffffffffffff8211156124b0576124af6121ce565b5b602082029050602081019050919050565b60006124d46124cf84612495565b61222e565b905080838252602082019050602084028301858111156124f7576124f6612275565b5b835b81811015612520578061250c8882611f71565b8452602084019350506020810190506124f9565b5050509392505050565b600082601f83011261253f5761253e6121c9565b5b813561254f8482602086016124c1565b91505092915050565b6000806040838503121561256f5761256e611f1e565b5b600083013567ffffffffffffffff81111561258d5761258c611f23565b5b6125998582860161252a565b925050602083013567ffffffffffffffff8111156125ba576125b9611f23565b5b6125c6858286016122e3565b9150509250929050565b600081519050919050565b600082825260208201905092915050565b6000819050602082019050919050565b61260581611f86565b82525050565b600061261783836125fc565b60208301905092915050565b6000602082019050919050565b600061263b826125d0565b61264581856125db565b9350612650836125ec565b8060005b83811015612681578151612668888261260b565b975061267383612623565b925050600181019050612654565b5085935050505092915050565b600060208201905081810360008301526126a88184612630565b905092915050565b6000806000606084860312156126c9576126c8611f1e565b5b60006126d786828701611f71565b935050602084013567ffffffffffffffff8111156126f8576126f7611f23565b5b612704868287016122e3565b925050604084013567ffffffffffffffff81111561272557612724611f23565b5b612731868287016122e3565b9150509250925092565b61274481611f48565b82525050565b600060208201905061275f600083018461273b565b92915050565b61276e816120ab565b811461277957600080fd5b50565b60008135905061278b81612765565b92915050565b600080604083850312156127a8576127a7611f1e565b5b60006127b685828601611f71565b92505060206127c78582860161277c565b9150509250929050565b600080604083850312156127e8576127e7611f1e565b5b60006127f685828601611f71565b925050602061280785828601611f71565b9150509250929050565b600080600080600060a0868803121561282d5761282c611f1e565b5b600061283b88828901611f71565b955050602061284c88828901611f71565b945050604061285d88828901611fa7565b935050606061286e88828901611fa7565b925050608086013567ffffffffffffffff81111561288f5761288e611f23565b5b61289b88828901612398565b9150509295509295909350565b6000602082840312156128be576128bd611f1e565b5b60006128cc84828501611f71565b91505092915050565b6000806000606084860312156128ee576128ed611f1e565b5b60006128fc86828701611f71565b935050602061290d86828701611fa7565b925050604061291e86828701611fa7565b9150509250925092565b7f455243313135353a2061646472657373207a65726f206973206e6f742061207660008201527f616c6964206f776e657200000000000000000000000000000000000000000000602082015250565b6000612984602a83612119565b915061298f82612928565b604082019050919050565b600060208201905081810360008301526129b381612977565b9050919050565b600081905092915050565b7f68747470733a2f2f697066732e696f2f697066732f516d5a653164476756417160008201527f5164516267515870457a57706d6d6473524c5573504636317a7562443259376d60208201527f3174432f00000000000000000000000000000000000000000000000000000000604082015250565b6000612a476044836129ba565b9150612a52826129c5565b604482019050919050565b6000612a688261210e565b612a7281856129ba565b9350612a8281856020860161212a565b80840191505092915050565b7f2e6a736f6e000000000000000000000000000000000000000000000000000000600082015250565b6000612ac46005836129ba565b9150612acf82612a8e565b600582019050919050565b6000612ae582612a3a565b9150612af18284612a5d565b9150612afc82612ab7565b915081905092915050565b7f455243313135353a2063616c6c6572206973206e6f7420746f6b656e206f776e60008201527f6572206e6f7220617070726f7665640000000000000000000000000000000000602082015250565b6000612b63602f83612119565b9150612b6e82612b07565b604082019050919050565b60006020820190508181036000830152612b9281612b56565b9050919050565b7f455243313135353a206163636f756e747320616e6420696473206c656e67746860008201527f206d69736d617463680000000000000000000000000000000000000000000000602082015250565b6000612bf5602983612119565b9150612c0082612b99565b604082019050919050565b60006020820190508181036000830152612c2481612be8565b9050919050565b7f4e487b7100000000000000000000000000000000000000000000000000000000600052603260045260246000fd5b7f4e487b7100000000000000000000000000000000000000000000000000000000600052601160045260246000fd5b6000612c9482611f86565b91507fffffffffffffffffffffffffffffffffffffffffffffffffffffffffffffffff821415612cc757612cc6612c5a565b5b600182019050919050565b7f4f776e61626c653a206e6577206f776e657220697320746865207a65726f206160008201527f6464726573730000000000000000000000000000000000000000000000000000602082015250565b6000612d2e602683612119565b9150612d3982612cd2565b604082019050919050565b60006020820190508181036000830152612d5d81612d21565b9050919050565b7f4e487b7100000000000000000000000000000000000000000000000000000000600052601260045260246000fd5b6000612d9e82611f86565b9150612da983611f86565b925082612db957612db8612d64565b5b828204905092915050565b6000612dcf82611f86565b9150612dda83611f86565b925082821015612ded57612dec612c5a565b5b828203905092915050565b6000612e0382611f86565b9150612e0e83611f86565b925082612e1e57612e1d612d64565b5b828206905092915050565b6000612e3482611f86565b9150612e3f83611f86565b9250827fffffffffffffffffffffffffffffffffffffffffffffffffffffffffffffffff03821115612e7457612e73612c5a565b5b828201905092915050565b7f455243313135353a2069647320616e6420616d6f756e7473206c656e6774682060008201527f6d69736d61746368000000000000000000000000000000000000000000000000602082015250565b6000612edb602883612119565b9150612ee682612e7f565b604082019050919050565b60006020820190508181036000830152612f0a81612ece565b9050919050565b7f455243313135353a207472616e7366657220746f20746865207a65726f20616460008201527f6472657373000000000000000000000000000000000000000000000000000000602082015250565b6000612f6d602583612119565b9150612f7882612f11565b604082019050919050565b60006020820190508181036000830152612f9c81612f60565b9050919050565b7f455243313135353a20696e73756666696369656e742062616c616e636520666f60008201527f72207472616e7366657200000000000000000000000000000000000000000000602082015250565b6000612fff602a83612119565b915061300a82612fa3565b604082019050919050565b6000602082019050818103600083015261302e81612ff2565b9050919050565b6000604082019050818103600083015261304f8185612630565b905081810360208301526130638184612630565b90509392505050565b7f455243313135353a206275726e2066726f6d20746865207a65726f206164647260008201527f6573730000000000000000000000000000000000000000000000000000000000602082015250565b60006130c8602383612119565b91506130d38261306c565b604082019050919050565b600060208201905081810360008301526130f7816130bb565b9050919050565b7f455243313135353a206275726e20616d6f756e7420657863656564732062616c60008201527f616e636500000000000000000000000000000000000000000000000000000000602082015250565b600061315a602483612119565b9150613165826130fe565b604082019050919050565b600060208201905081810360008301526131898161314d565b9050919050565b7f4f776e61626c653a2063616c6c6572206973206e6f7420746865206f776e6572600082015250565b60006131c6602083612119565b91506131d182613190565b602082019050919050565b600060208201905081810360008301526131f5816131b9565b9050919050565b7f455243313135353a2073657474696e6720617070726f76616c2073746174757360008201527f20666f722073656c660000000000000000000000000000000000000000000000602082015250565b6000613258602983612119565b9150613263826131fc565b604082019050919050565b600060208201905081810360008301526132878161324b565b9050919050565b60006040820190506132a36000830185611ffc565b6132b06020830184611ffc565b9392505050565b7f596f7520616c7265616479207573652069742100000000000000000000000000600082015250565b60006132ed601383612119565b91506132f8826132b7565b602082019050919050565b6000602082019050818103600083015261331c816132e0565b9050919050565b600081519050919050565b600082825260208201905092915050565b600061334a82613323565b613354818561332e565b935061336481856020860161212a565b61336d8161215d565b840191505092915050565b600060a08201905061338d600083018861273b565b61339a602083018761273b565b81810360408301526133ac8186612630565b905081810360608301526133c08185612630565b905081810360808301526133d4818461333f565b90509695505050505050565b6000815190506133ef81612052565b92915050565b60006020828403121561340b5761340a611f1e565b5b6000613419848285016133e0565b91505092915050565b60008160e01c9050919050565b600060033d111561344e5760046000803e61344b600051613422565b90505b90565b600060443d1015613461576134e4565b613469611f14565b60043d036004823e80513d602482011167ffffffffffffffff821117156134915750506134e4565b808201805167ffffffffffffffff8111156134af57505050506134e4565b80602083010160043d0385018111156134cc5750505050506134e4565b6134db826020018501866121fd565b82955050505050505b90565b7f455243313135353a207472616e7366657220746f206e6f6e204552433131353560008201527f526563656976657220696d706c656d656e746572000000000000000000000000602082015250565b6000613543603483612119565b915061354e826134e7565b604082019050919050565b6000602082019050818103600083015261357281613536565b9050919050565b7f455243313135353a204552433131353552656365697665722072656a6563746560008201527f6420746f6b656e73000000000000000000000000000000000000000000000000602082015250565b60006135d5602883612119565b91506135e082613579565b604082019050919050565b60006020820190508181036000830152613604816135c8565b9050919050565b600060a082019050613620600083018861273b565b61362d602083018761273b565b61363a6040830186611ffc565b6136476060830185611ffc565b8181036080830152613659818461333f565b9050969550505050505056fe68747470733a2f2f697066732e696f2f697066732f516d5a65316447675641715164516267515870457a57706d6d6473524c5573504636317a7562443259376d3174432f636f6c6c656374696f6e732e6a736f6ea2646970667358221220e4780f83e0278642d4e05afe83f218e96fa75633f190ccb8ea03d371acfcf33164736f6c6343000808003368747470733a2f2f697066732e696f2f697066732f516d5a65316447675641715164516267515870457a57706d6d6473524c5573504636317a7562443259376d3174432f7b69647d2e6a736f6e",
  "devdoc": {
    "kind": "dev",
    "methods": {
      "balanceOf(address,uint256)": {
        "details": "See {IERC1155-balanceOf}. Requirements: - `account` cannot be the zero address."
      },
      "balanceOfBatch(address[],uint256[])": {
        "details": "See {IERC1155-balanceOfBatch}. Requirements: - `accounts` and `ids` must have the same length."
      },
      "isApprovedForAll(address,address)": {
        "details": "See {IERC1155-isApprovedForAll}."
      },
      "owner()": {
        "details": "Returns the address of the current owner."
      },
      "renounceOwnership()": {
        "details": "Leaves the contract without owner. It will not be possible to call `onlyOwner` functions anymore. Can only be called by the current owner. NOTE: Renouncing ownership will leave the contract without an owner, thereby removing any functionality that is only available to the owner."
      },
      "safeBatchTransferFrom(address,address,uint256[],uint256[],bytes)": {
        "details": "See {IERC1155-safeBatchTransferFrom}."
      },
      "safeTransferFrom(address,address,uint256,uint256,bytes)": {
        "details": "See {IERC1155-safeTransferFrom}."
      },
      "setApprovalForAll(address,bool)": {
        "details": "See {IERC1155-setApprovalForAll}."
      },
      "supportsInterface(bytes4)": {
        "details": "See {IERC165-supportsInterface}."
      },
      "transferOwnership(address)": {
        "details": "Transfers ownership of the contract to a new account (`newOwner`). Can only be called by the current owner."
      }
    },
    "version": 1
  },
  "userdoc": {
    "kind": "user",
    "methods": {},
    "version": 1
  },
  "storageLayout": {
    "storage": [
      {
        "astId": 178,
        "contract": "contracts/BasicNft.sol:BasicNft",
        "label": "_balances",
        "offset": 0,
        "slot": "0",
        "type": "t_mapping(t_uint256,t_mapping(t_address,t_uint256))"
      },
      {
        "astId": 184,
        "contract": "contracts/BasicNft.sol:BasicNft",
        "label": "_operatorApprovals",
        "offset": 0,
        "slot": "1",
        "type": "t_mapping(t_address,t_mapping(t_address,t_bool))"
      },
      {
        "astId": 186,
        "contract": "contracts/BasicNft.sol:BasicNft",
        "label": "_uri",
        "offset": 0,
        "slot": "2",
        "type": "t_string_storage"
      },
      {
        "astId": 7,
        "contract": "contracts/BasicNft.sol:BasicNft",
        "label": "_owner",
        "offset": 0,
        "slot": "3",
        "type": "t_address"
      },
      {
        "astId": 2221,
        "contract": "contracts/BasicNft.sol:BasicNft",
        "label": "marketplace",
        "offset": 0,
        "slot": "4",
        "type": "t_address"
      }
    ],
    "types": {
      "t_address": {
        "encoding": "inplace",
        "label": "address",
        "numberOfBytes": "20"
      },
      "t_bool": {
        "encoding": "inplace",
        "label": "bool",
        "numberOfBytes": "1"
      },
      "t_mapping(t_address,t_bool)": {
        "encoding": "mapping",
        "key": "t_address",
        "label": "mapping(address => bool)",
        "numberOfBytes": "32",
        "value": "t_bool"
      },
      "t_mapping(t_address,t_mapping(t_address,t_bool))": {
        "encoding": "mapping",
        "key": "t_address",
        "label": "mapping(address => mapping(address => bool))",
        "numberOfBytes": "32",
        "value": "t_mapping(t_address,t_bool)"
      },
      "t_mapping(t_address,t_uint256)": {
        "encoding": "mapping",
        "key": "t_address",
        "label": "mapping(address => uint256)",
        "numberOfBytes": "32",
        "value": "t_uint256"
      },
      "t_mapping(t_uint256,t_mapping(t_address,t_uint256))": {
        "encoding": "mapping",
        "key": "t_uint256",
        "label": "mapping(uint256 => mapping(address => uint256))",
        "numberOfBytes": "32",
        "value": "t_mapping(t_address,t_uint256)"
      },
      "t_string_storage": {
        "encoding": "bytes",
        "label": "string",
        "numberOfBytes": "32"
      },
      "t_uint256": {
        "encoding": "inplace",
        "label": "uint256",
        "numberOfBytes": "32"
      }
    }
  }
}