{
  "address": "0x76De38Ba903d07C7A728195e9e80f730ea50A37e",
  "abi": [
    {
      "inputs": [
        {
          "internalType": "address",
          "name": "_marketplace",
          "type": "address"
        }
      ],
      "stateMutability": "nonpayable",
      "type": "constructor"
    },
    {
      "anonymous": false,
      "inputs": [
        {
          "indexed": true,
          "internalType": "address",
          "name": "account",
          "type": "address"
        },
        {
          "indexed": true,
          "internalType": "address",
          "name": "operator",
          "type": "address"
        },
        {
          "indexed": false,
          "internalType": "bool",
          "name": "approved",
          "type": "bool"
        }
      ],
      "name": "ApprovalForAll",
      "type": "event"
    },
    {
      "anonymous": false,
      "inputs": [
        {
          "indexed": true,
          "internalType": "address",
          "name": "previousOwner",
          "type": "address"
        },
        {
          "indexed": true,
          "internalType": "address",
          "name": "newOwner",
          "type": "address"
        }
      ],
      "name": "OwnershipTransferred",
      "type": "event"
    },
    {
      "anonymous": false,
      "inputs": [
        {
          "indexed": true,
          "internalType": "address",
          "name": "operator",
          "type": "address"
        },
        {
          "indexed": true,
          "internalType": "address",
          "name": "from",
          "type": "address"
        },
        {
          "indexed": true,
          "internalType": "address",
          "name": "to",
          "type": "address"
        },
        {
          "indexed": false,
          "internalType": "uint256[]",
          "name": "ids",
          "type": "uint256[]"
        },
        {
          "indexed": false,
          "internalType": "uint256[]",
          "name": "values",
          "type": "uint256[]"
        }
      ],
      "name": "TransferBatch",
      "type": "event"
    },
    {
      "anonymous": false,
      "inputs": [
        {
          "indexed": true,
          "internalType": "address",
          "name": "operator",
          "type": "address"
        },
        {
          "indexed": true,
          "internalType": "address",
          "name": "from",
          "type": "address"
        },
        {
          "indexed": true,
          "internalType": "address",
          "name": "to",
          "type": "address"
        },
        {
          "indexed": false,
          "internalType": "uint256",
          "name": "id",
          "type": "uint256"
        },
        {
          "indexed": false,
          "internalType": "uint256",
          "name": "value",
          "type": "uint256"
        }
      ],
      "name": "TransferSingle",
      "type": "event"
    },
    {
      "anonymous": false,
      "inputs": [
        {
          "indexed": false,
          "internalType": "string",
          "name": "value",
          "type": "string"
        },
        {
          "indexed": true,
          "internalType": "uint256",
          "name": "id",
          "type": "uint256"
        }
      ],
      "name": "URI",
      "type": "event"
    },
    {
      "inputs": [],
      "name": "ONION",
      "outputs": [
        {
          "internalType": "uint256",
          "name": "",
          "type": "uint256"
        }
      ],
      "stateMutability": "view",
      "type": "function"
    },
    {
      "inputs": [],
      "name": "POTATO",
      "outputs": [
        {
          "internalType": "uint256",
          "name": "",
          "type": "uint256"
        }
      ],
      "stateMutability": "view",
      "type": "function"
    },
    {
      "inputs": [
        {
          "internalType": "address",
          "name": "account",
          "type": "address"
        },
        {
          "internalType": "uint256",
          "name": "id",
          "type": "uint256"
        }
      ],
      "name": "balanceOf",
      "outputs": [
        {
          "internalType": "uint256",
          "name": "",
          "type": "uint256"
        }
      ],
      "stateMutability": "view",
      "type": "function"
    },
    {
      "inputs": [
        {
          "internalType": "address[]",
          "name": "accounts",
          "type": "address[]"
        },
        {
          "internalType": "uint256[]",
          "name": "ids",
          "type": "uint256[]"
        }
      ],
      "name": "balanceOfBatch",
      "outputs": [
        {
          "internalType": "uint256[]",
          "name": "",
          "type": "uint256[]"
        }
      ],
      "stateMutability": "view",
      "type": "function"
    },
    {
      "inputs": [
        {
          "internalType": "address",
          "name": "account",
          "type": "address"
        },
        {
          "internalType": "uint256",
          "name": "id",
          "type": "uint256"
        },
        {
          "internalType": "uint256",
          "name": "value",
          "type": "uint256"
        }
      ],
      "name": "burn",
      "outputs": [],
      "stateMutability": "nonpayable",
      "type": "function"
    },
    {
      "inputs": [
        {
          "internalType": "address",
          "name": "account",
          "type": "address"
        },
        {
          "internalType": "uint256[]",
          "name": "ids",
          "type": "uint256[]"
        },
        {
          "internalType": "uint256[]",
          "name": "values",
          "type": "uint256[]"
        }
      ],
      "name": "burnBatch",
      "outputs": [],
      "stateMutability": "nonpayable",
      "type": "function"
    },
    {
      "inputs": [],
      "name": "contractURI",
      "outputs": [
        {
          "internalType": "string",
          "name": "",
          "type": "string"
        }
      ],
      "stateMutability": "pure",
      "type": "function"
    },
    {
      "inputs": [
        {
          "internalType": "address",
          "name": "account",
          "type": "address"
        },
        {
          "internalType": "address",
          "name": "operator",
          "type": "address"
        }
      ],
      "name": "isApprovedForAll",
      "outputs": [
        {
          "internalType": "bool",
          "name": "",
          "type": "bool"
        }
      ],
      "stateMutability": "view",
      "type": "function"
    },
    {
      "inputs": [],
      "name": "marketplace",
      "outputs": [
        {
          "internalType": "address",
          "name": "",
          "type": "address"
        }
      ],
      "stateMutability": "view",
      "type": "function"
    },
    {
      "inputs": [],
      "name": "owner",
      "outputs": [
        {
          "internalType": "address",
          "name": "",
          "type": "address"
        }
      ],
      "stateMutability": "view",
      "type": "function"
    },
    {
      "inputs": [],
      "name": "renounceOwnership",
      "outputs": [],
      "stateMutability": "nonpayable",
      "type": "function"
    },
    {
      "inputs": [
        {
          "internalType": "address",
          "name": "from",
          "type": "address"
        },
        {
          "internalType": "address",
          "name": "to",
          "type": "address"
        },
        {
          "internalType": "uint256[]",
          "name": "ids",
          "type": "uint256[]"
        },
        {
          "internalType": "uint256[]",
          "name": "amounts",
          "type": "uint256[]"
        },
        {
          "internalType": "bytes",
          "name": "data",
          "type": "bytes"
        }
      ],
      "name": "safeBatchTransferFrom",
      "outputs": [],
      "stateMutability": "nonpayable",
      "type": "function"
    },
    {
      "inputs": [
        {
          "internalType": "address",
          "name": "from",
          "type": "address"
        },
        {
          "internalType": "address",
          "name": "to",
          "type": "address"
        },
        {
          "internalType": "uint256",
          "name": "id",
          "type": "uint256"
        },
        {
          "internalType": "uint256",
          "name": "amount",
          "type": "uint256"
        },
        {
          "internalType": "bytes",
          "name": "data",
          "type": "bytes"
        }
      ],
      "name": "safeTransferFrom",
      "outputs": [],
      "stateMutability": "nonpayable",
      "type": "function"
    },
    {
      "inputs": [
        {
          "internalType": "address",
          "name": "operator",
          "type": "address"
        },
        {
          "internalType": "bool",
          "name": "approved",
          "type": "bool"
        }
      ],
      "name": "setApprovalForAll",
      "outputs": [],
      "stateMutability": "nonpayable",
      "type": "function"
    },
    {
      "inputs": [
        {
          "internalType": "bytes4",
          "name": "interfaceId",
          "type": "bytes4"
        }
      ],
      "name": "supportsInterface",
      "outputs": [
        {
          "internalType": "bool",
          "name": "",
          "type": "bool"
        }
      ],
      "stateMutability": "view",
      "type": "function"
    },
    {
      "inputs": [
        {
          "internalType": "address",
          "name": "newOwner",
          "type": "address"
        }
      ],
      "name": "transferOwnership",
      "outputs": [],
      "stateMutability": "nonpayable",
      "type": "function"
    },
    {
      "inputs": [
        {
          "internalType": "uint256",
          "name": "token_id",
          "type": "uint256"
        }
      ],
      "name": "uri",
      "outputs": [
        {
          "internalType": "string",
          "name": "",
          "type": "string"
        }
      ],
      "stateMutability": "pure",
      "type": "function"
    }
  ],
  "transactionHash": "0x6f9396dad8831183dcfe34bbd4e99d859a740949530eb2287a870f15c7c5a013",
  "args": [
    "0x6C2ECb0aEB7E182d7883B53717e8727217b1Fe4B"
  ],
  "numDeployments": 3,
  "solcInputHash": "c9ec0564b4fdb89346799059904af9b7",
  "bytecode": "0x60806040523480156200001157600080fd5b506040516200256b3803806200256b8339810160408190526200003491620005cd565b6040518060800160405280604d81526020016200251e604d91396200005981620000d5565b506200006533620000ee565b6200008a336000600a604051806020016040528060008152506200014060201b60201c565b620000af3360016005604051806020016040528060008152506200014060201b60201c565b600480546001600160a01b0319166001600160a01b039290921691909117905562000838565b8051620000ea90600290602084019062000527565b5050565b600380546001600160a01b038381166001600160a01b0319831681179093556040519116919082907f8be0079c531659141344cd1fd0a4f28419497f9722a3daafe3b4186f6b6457e090600090a35050565b6001600160a01b038416620001a65760405162461bcd60e51b815260206004820152602160248201527f455243313135353a206d696e7420746f20746865207a65726f206164647265736044820152607360f81b60648201526084015b60405180910390fd5b336000620001b48562000273565b90506000620001c38562000273565b9050620001d683600089858589620002c1565b6000868152602081815260408083206001600160a01b038b1684529091528120805487929062000208908490620005ff565b909155505060408051878152602081018790526001600160a01b03808a1692600092918716917fc3d58168c5ae7397731d063d5bbf3d657854427343f4c083240f7aacaa2d0f62910160405180910390a46200026a836000898989896200033b565b50505050505050565b60408051600180825281830190925260609160009190602080830190803683370190505090508281600081518110620002b057620002b062000626565b602090810291909101015292915050565b6004546001600160a01b0316331480620002e557506003546001600160a01b031633145b620003335760405162461bcd60e51b815260206004820152601360248201527f596f7520616c726561647920757365206974210000000000000000000000000060448201526064016200019d565b505050505050565b6200035a846001600160a01b03166200051860201b620006bb1760201c565b15620003335760405163f23a6e6160e01b81526001600160a01b0385169063f23a6e61906200039690899089908890889088906004016200068c565b602060405180830381600087803b158015620003b157600080fd5b505af1925050508015620003e4575060408051601f3d908101601f19168201909252620003e191810190620006d3565b60015b620004a557620003f3620006ff565b806308c379a014156200043457506200040b62000757565b8062000418575062000436565b8060405162461bcd60e51b81526004016200019d9190620007e6565b505b60405162461bcd60e51b815260206004820152603460248201527f455243313135353a207472616e7366657220746f206e6f6e204552433131353560448201527f526563656976657220696d706c656d656e74657200000000000000000000000060648201526084016200019d565b6001600160e01b0319811663f23a6e6160e01b146200026a5760405162461bcd60e51b815260206004820152602860248201527f455243313135353a204552433131353552656365697665722072656a656374656044820152676420746f6b656e7360c01b60648201526084016200019d565b6001600160a01b03163b151590565b8280546200053590620007fb565b90600052602060002090601f016020900481019282620005595760008555620005a4565b82601f106200057457805160ff1916838001178555620005a4565b82800160010185558215620005a4579182015b82811115620005a457825182559160200191906001019062000587565b50620005b2929150620005b6565b5090565b5b80821115620005b25760008155600101620005b7565b600060208284031215620005e057600080fd5b81516001600160a01b0381168114620005f857600080fd5b9392505050565b600082198211156200062157634e487b7160e01b600052601160045260246000fd5b500190565b634e487b7160e01b600052603260045260246000fd5b6000815180845260005b81811015620006645760208185018101518683018201520162000646565b8181111562000677576000602083870101525b50601f01601f19169290920160200192915050565b6001600160a01b03868116825285166020820152604081018490526060810183905260a060808201819052600090620006c8908301846200063c565b979650505050505050565b600060208284031215620006e657600080fd5b81516001600160e01b031981168114620005f857600080fd5b600060033d1115620007195760046000803e5060005160e01c5b90565b601f8201601f191681016001600160401b03811182821017156200075057634e487b7160e01b600052604160045260246000fd5b6040525050565b600060443d1015620007665790565b6040516003193d81016004833e81513d6001600160401b0380831160248401831017156200079657505050505090565b8285019150815181811115620007af5750505050505090565b843d8701016020828501011115620007ca5750505050505090565b620007db602082860101876200071c565b509095945050505050565b602081526000620005f860208301846200063c565b600181811c908216806200081057607f821691505b602082108114156200083257634e487b7160e01b600052602260045260246000fd5b50919050565b611cd680620008486000396000f3fe608060405234801561001057600080fd5b506004361061010a5760003560e01c80638da5cb5b116100a2578063e8a3d48511610071578063e8a3d48514610223578063e985e9c51461022b578063f242432a14610267578063f2fde38b1461027a578063f5298aca1461028d57600080fd5b80638da5cb5b146101d05780639f2685f7146101f5578063a22cb465146101fd578063abc8c7af1461021057600080fd5b80634e1273f4116100de5780634e1273f41461018d5780636b20c454146101ad578063715018a6146101c0578063734df79d146101c857600080fd5b8062fdd58e1461010f57806301ffc9a7146101355780630e89341c146101585780632eb2c2d614610178575b600080fd5b61012261011d3660046111fb565b6102a0565b6040519081526020015b60405180910390f35b61014861014336600461123b565b610336565b604051901515815260200161012c565b61016b61016636600461125f565b610388565b60405161012c91906112d0565b61018b61018636600461142f565b6103b9565b005b6101a061019b3660046114d9565b610405565b60405161012c91906115df565b61018b6101bb3660046115f2565b61052f565b61018b610577565b610122600081565b6003546001600160a01b03165b6040516001600160a01b03909116815260200161012c565b610122600181565b61018b61020b366004611666565b61058b565b6004546101dd906001600160a01b031681565b61016b61059a565b6101486102393660046116a2565b6001600160a01b03918216600090815260016020908152604080832093909416825291909152205460ff1690565b61018b6102753660046116d5565b6105ba565b61018b61028836600461173a565b6105ff565b61018b61029b366004611755565b610678565b60006001600160a01b0383166103105760405162461bcd60e51b815260206004820152602a60248201527f455243313135353a2061646472657373207a65726f206973206e6f742061207660448201526930b634b21037bbb732b960b11b60648201526084015b60405180910390fd5b506000908152602081815260408083206001600160a01b03949094168352929052205490565b60006001600160e01b03198216636cdb3d1360e11b148061036757506001600160e01b031982166303a24d0760e21b145b8061038257506301ffc9a760e01b6001600160e01b03198316145b92915050565b6060610393826106ca565b6040516020016103a39190611788565b6040516020818303038152906040529050919050565b6001600160a01b0385163314806103d557506103d58533610239565b6103f15760405162461bcd60e51b81526004016103079061180f565b6103fe85858585856107d0565b5050505050565b6060815183511461046a5760405162461bcd60e51b815260206004820152602960248201527f455243313135353a206163636f756e747320616e6420696473206c656e677468604482015268040dad2e6dac2e8c6d60bb1b6064820152608401610307565b6000835167ffffffffffffffff811115610486576104866112e3565b6040519080825280602002602001820160405280156104af578160200160208202803683370190505b50905060005b8451811015610527576104fa8582815181106104d3576104d361185e565b60200260200101518583815181106104ed576104ed61185e565b60200260200101516102a0565b82828151811061050c5761050c61185e565b60209081029190910101526105208161188a565b90506104b5565b509392505050565b6001600160a01b03831633148061054b575061054b8333610239565b6105675760405162461bcd60e51b81526004016103079061180f565b61057283838361097a565b505050565b61057f610b18565b6105896000610b72565b565b610596338383610bc4565b5050565b6060604051806080016040528060548152602001611c4d60549139905090565b6001600160a01b0385163314806105d657506105d68533610239565b6105f25760405162461bcd60e51b81526004016103079061180f565b6103fe8585858585610ca5565b610607610b18565b6001600160a01b03811661066c5760405162461bcd60e51b815260206004820152602660248201527f4f776e61626c653a206e6577206f776e657220697320746865207a65726f206160448201526564647265737360d01b6064820152608401610307565b61067581610b72565b50565b6001600160a01b03831633148061069457506106948333610239565b6106b05760405162461bcd60e51b81526004016103079061180f565b610572838383610ddd565b6001600160a01b03163b151590565b6060816106ee5750506040805180820190915260018152600360fc1b602082015290565b8160005b811561071857806107028161188a565b91506107119050600a836118bb565b91506106f2565b60008167ffffffffffffffff811115610733576107336112e3565b6040519080825280601f01601f19166020018201604052801561075d576020820181803683370190505b5090505b84156107c8576107726001836118cf565b915061077f600a866118e6565b61078a9060306118fa565b60f81b81838151811061079f5761079f61185e565b60200101906001600160f81b031916908160001a9053506107c1600a866118bb565b9450610761565b949350505050565b81518351146107f15760405162461bcd60e51b815260040161030790611912565b6001600160a01b0384166108175760405162461bcd60e51b81526004016103079061195a565b33610826818787878787610efa565b60005b845181101561090c5760008582815181106108465761084661185e565b6020026020010151905060008583815181106108645761086461185e565b602090810291909101810151600084815280835260408082206001600160a01b038e1683529093529190912054909150818110156108b45760405162461bcd60e51b81526004016103079061199f565b6000838152602081815260408083206001600160a01b038e8116855292528083208585039055908b168252812080548492906108f19084906118fa565b92505081905550505050806109059061188a565b9050610829565b50846001600160a01b0316866001600160a01b0316826001600160a01b03167f4a39dc06d4c0dbc64b70af90fd698a233a518aa5d07e595d983b8c0526c8f7fb878760405161095c9291906119e9565b60405180910390a4610972818787878787610f5f565b505050505050565b6001600160a01b0383166109a05760405162461bcd60e51b815260040161030790611a17565b80518251146109c15760405162461bcd60e51b815260040161030790611912565b60003390506109e481856000868660405180602001604052806000815250610efa565b60005b8351811015610aa9576000848281518110610a0457610a0461185e565b602002602001015190506000848381518110610a2257610a2261185e565b602090810291909101810151600084815280835260408082206001600160a01b038c168352909352919091205490915081811015610a725760405162461bcd60e51b815260040161030790611a5a565b6000928352602083815260408085206001600160a01b038b1686529091529092209103905580610aa18161188a565b9150506109e7565b5060006001600160a01b0316846001600160a01b0316826001600160a01b03167f4a39dc06d4c0dbc64b70af90fd698a233a518aa5d07e595d983b8c0526c8f7fb8686604051610afa9291906119e9565b60405180910390a46040805160208101909152600090525b50505050565b6003546001600160a01b031633146105895760405162461bcd60e51b815260206004820181905260248201527f4f776e61626c653a2063616c6c6572206973206e6f7420746865206f776e65726044820152606401610307565b600380546001600160a01b038381166001600160a01b0319831681179093556040519116919082907f8be0079c531659141344cd1fd0a4f28419497f9722a3daafe3b4186f6b6457e090600090a35050565b816001600160a01b0316836001600160a01b03161415610c385760405162461bcd60e51b815260206004820152602960248201527f455243313135353a2073657474696e6720617070726f76616c20737461747573604482015268103337b91039b2b63360b91b6064820152608401610307565b6001600160a01b03838116600081815260016020908152604080832094871680845294825291829020805460ff191686151590811790915591519182527f17307eab39ab6107e8899845ad3d59bd9653f200f220920489ca2b5937696c31910160405180910390a3505050565b6001600160a01b038416610ccb5760405162461bcd60e51b81526004016103079061195a565b336000610cd7856110ca565b90506000610ce4856110ca565b9050610cf4838989858589610efa565b6000868152602081815260408083206001600160a01b038c16845290915290205485811015610d355760405162461bcd60e51b81526004016103079061199f565b6000878152602081815260408083206001600160a01b038d8116855292528083208985039055908a16825281208054889290610d729084906118fa565b909155505060408051888152602081018890526001600160a01b03808b16928c821692918816917fc3d58168c5ae7397731d063d5bbf3d657854427343f4c083240f7aacaa2d0f62910160405180910390a4610dd2848a8a8a8a8a611115565b505050505050505050565b6001600160a01b038316610e035760405162461bcd60e51b815260040161030790611a17565b336000610e0f846110ca565b90506000610e1c846110ca565b9050610e3c83876000858560405180602001604052806000815250610efa565b6000858152602081815260408083206001600160a01b038a16845290915290205484811015610e7d5760405162461bcd60e51b815260040161030790611a5a565b6000868152602081815260408083206001600160a01b038b81168086529184528285208a8703905582518b81529384018a90529092908816917fc3d58168c5ae7397731d063d5bbf3d657854427343f4c083240f7aacaa2d0f62910160405180910390a46040805160208101909152600090525b50505050505050565b6004546001600160a01b0316331480610f1d57506003546001600160a01b031633145b6109725760405162461bcd60e51b8152602060048201526013602482015272596f7520616c7265616479207573652069742160681b6044820152606401610307565b6001600160a01b0384163b156109725760405163bc197c8160e01b81526001600160a01b0385169063bc197c8190610fa39089908990889088908890600401611a9e565b602060405180830381600087803b158015610fbd57600080fd5b505af1925050508015610fed575060408051601f3d908101601f19168201909252610fea91810190611afc565b60015b61109a57610ff9611b19565b806308c379a01415611033575061100e611b35565b806110195750611035565b8060405162461bcd60e51b815260040161030791906112d0565b505b60405162461bcd60e51b815260206004820152603460248201527f455243313135353a207472616e7366657220746f206e6f6e20455243313135356044820152732932b1b2b4bb32b91034b6b83632b6b2b73a32b960611b6064820152608401610307565b6001600160e01b0319811663bc197c8160e01b14610ef15760405162461bcd60e51b815260040161030790611bbf565b604080516001808252818301909252606091600091906020808301908036833701905050905082816000815181106111045761110461185e565b602090810291909101015292915050565b6001600160a01b0384163b156109725760405163f23a6e6160e01b81526001600160a01b0385169063f23a6e61906111599089908990889088908890600401611c07565b602060405180830381600087803b15801561117357600080fd5b505af19250505080156111a3575060408051601f3d908101601f191682019092526111a091810190611afc565b60015b6111af57610ff9611b19565b6001600160e01b0319811663f23a6e6160e01b14610ef15760405162461bcd60e51b815260040161030790611bbf565b80356001600160a01b03811681146111f657600080fd5b919050565b6000806040838503121561120e57600080fd5b611217836111df565b946020939093013593505050565b6001600160e01b03198116811461067557600080fd5b60006020828403121561124d57600080fd5b813561125881611225565b9392505050565b60006020828403121561127157600080fd5b5035919050565b60005b8381101561129357818101518382015260200161127b565b83811115610b125750506000910152565b600081518084526112bc816020860160208601611278565b601f01601f19169290920160200192915050565b60208152600061125860208301846112a4565b634e487b7160e01b600052604160045260246000fd5b601f8201601f1916810167ffffffffffffffff8111828210171561131f5761131f6112e3565b6040525050565b600067ffffffffffffffff821115611340576113406112e3565b5060051b60200190565b600082601f83011261135b57600080fd5b8135602061136882611326565b60405161137582826112f9565b83815260059390931b850182019282810191508684111561139557600080fd5b8286015b848110156113b05780358352918301918301611399565b509695505050505050565b600082601f8301126113cc57600080fd5b813567ffffffffffffffff8111156113e6576113e66112e3565b6040516113fd601f8301601f1916602001826112f9565b81815284602083860101111561141257600080fd5b816020850160208301376000918101602001919091529392505050565b600080600080600060a0868803121561144757600080fd5b611450866111df565b945061145e602087016111df565b9350604086013567ffffffffffffffff8082111561147b57600080fd5b61148789838a0161134a565b9450606088013591508082111561149d57600080fd5b6114a989838a0161134a565b935060808801359150808211156114bf57600080fd5b506114cc888289016113bb565b9150509295509295909350565b600080604083850312156114ec57600080fd5b823567ffffffffffffffff8082111561150457600080fd5b818501915085601f83011261151857600080fd5b8135602061152582611326565b60405161153282826112f9565b83815260059390931b850182019282810191508984111561155257600080fd5b948201945b8386101561157757611568866111df565b82529482019490820190611557565b9650508601359250508082111561158d57600080fd5b5061159a8582860161134a565b9150509250929050565b600081518084526020808501945080840160005b838110156115d4578151875295820195908201906001016115b8565b509495945050505050565b60208152600061125860208301846115a4565b60008060006060848603121561160757600080fd5b611610846111df565b9250602084013567ffffffffffffffff8082111561162d57600080fd5b6116398783880161134a565b9350604086013591508082111561164f57600080fd5b5061165c8682870161134a565b9150509250925092565b6000806040838503121561167957600080fd5b611682836111df565b91506020830135801515811461169757600080fd5b809150509250929050565b600080604083850312156116b557600080fd5b6116be836111df565b91506116cc602084016111df565b90509250929050565b600080600080600060a086880312156116ed57600080fd5b6116f6866111df565b9450611704602087016111df565b93506040860135925060608601359150608086013567ffffffffffffffff81111561172e57600080fd5b6114cc888289016113bb565b60006020828403121561174c57600080fd5b611258826111df565b60008060006060848603121561176a57600080fd5b611773846111df565b95602085013595506040909401359392505050565b7f68747470733a2f2f697066732e696f2f697066732f516d5a653164476756417181527f5164516267515870457a57706d6d6473524c5573504636317a7562443259376d6020820152633174432f60e01b6040820152600082516117f3816044850160208701611278565b64173539b7b760d91b6044939091019283015250604901919050565b6020808252602f908201527f455243313135353a2063616c6c6572206973206e6f7420746f6b656e206f776e60408201526e195c881b9bdc88185c1c1c9bdd9959608a1b606082015260800190565b634e487b7160e01b600052603260045260246000fd5b634e487b7160e01b600052601160045260246000fd5b600060001982141561189e5761189e611874565b5060010190565b634e487b7160e01b600052601260045260246000fd5b6000826118ca576118ca6118a5565b500490565b6000828210156118e1576118e1611874565b500390565b6000826118f5576118f56118a5565b500690565b6000821982111561190d5761190d611874565b500190565b60208082526028908201527f455243313135353a2069647320616e6420616d6f756e7473206c656e677468206040820152670dad2e6dac2e8c6d60c31b606082015260800190565b60208082526025908201527f455243313135353a207472616e7366657220746f20746865207a65726f206164604082015264647265737360d81b606082015260800190565b6020808252602a908201527f455243313135353a20696e73756666696369656e742062616c616e636520666f60408201526939103a3930b739b332b960b11b606082015260800190565b6040815260006119fc60408301856115a4565b8281036020840152611a0e81856115a4565b95945050505050565b60208082526023908201527f455243313135353a206275726e2066726f6d20746865207a65726f206164647260408201526265737360e81b606082015260800190565b60208082526024908201527f455243313135353a206275726e20616d6f756e7420657863656564732062616c604082015263616e636560e01b606082015260800190565b6001600160a01b0386811682528516602082015260a060408201819052600090611aca908301866115a4565b8281036060840152611adc81866115a4565b90508281036080840152611af081856112a4565b98975050505050505050565b600060208284031215611b0e57600080fd5b815161125881611225565b600060033d1115611b325760046000803e5060005160e01c5b90565b600060443d1015611b435790565b6040516003193d81016004833e81513d67ffffffffffffffff8160248401118184111715611b7357505050505090565b8285019150815181811115611b8b5750505050505090565b843d8701016020828501011115611ba55750505050505090565b611bb4602082860101876112f9565b509095945050505050565b60208082526028908201527f455243313135353a204552433131353552656365697665722072656a656374656040820152676420746f6b656e7360c01b606082015260800190565b6001600160a01b03868116825285166020820152604081018490526060810183905260a060808201819052600090611c41908301846112a4565b97965050505050505056fe68747470733a2f2f697066732e696f2f697066732f516d5a65316447675641715164516267515870457a57706d6d6473524c5573504636317a7562443259376d3174432f636f6c6c656374696f6e732e6a736f6ea2646970667358221220f1acc3c06242ebee5dc53ca4c5aa43a9546bd9431df37b28c35b5553a21931dc64736f6c6343000808003368747470733a2f2f697066732e696f2f697066732f516d5a65316447675641715164516267515870457a57706d6d6473524c5573504636317a7562443259376d3174432f7b69647d2e6a736f6e",
  "devdoc": {
    "kind": "dev",
    "methods": {
      "balanceOf(address,uint256)": {
        "details": "See {IERC1155-balanceOf}. Requirements: - `account` cannot be the zero address."
      },
      "balanceOfBatch(address[],uint256[])": {
        "details": "See {IERC1155-balanceOfBatch}. Requirements: - `accounts` and `ids` must have the same length."
      },
      "isApprovedForAll(address,address)": {
        "details": "See {IERC1155-isApprovedForAll}."
      },
      "owner()": {
        "details": "Returns the address of the current owner."
      },
      "renounceOwnership()": {
        "details": "Leaves the contract without owner. It will not be possible to call `onlyOwner` functions anymore. Can only be called by the current owner. NOTE: Renouncing ownership will leave the contract without an owner, thereby removing any functionality that is only available to the owner."
      },
      "safeBatchTransferFrom(address,address,uint256[],uint256[],bytes)": {
        "details": "See {IERC1155-safeBatchTransferFrom}."
      },
      "safeTransferFrom(address,address,uint256,uint256,bytes)": {
        "details": "See {IERC1155-safeTransferFrom}."
      },
      "setApprovalForAll(address,bool)": {
        "details": "See {IERC1155-setApprovalForAll}."
      },
      "supportsInterface(bytes4)": {
        "details": "See {IERC165-supportsInterface}."
      },
      "transferOwnership(address)": {
        "details": "Transfers ownership of the contract to a new account (`newOwner`). Can only be called by the current owner."
      }
    },
    "version": 1
  },
  "userdoc": {
    "kind": "user",
    "methods": {},
    "version": 1
  },
  "storageLayout": {
    "storage": [
      {
        "astId": 178,
        "contract": "contracts/BasicNft.sol:BasicNft",
        "label": "_balances",
        "offset": 0,
        "slot": "0",
        "type": "t_mapping(t_uint256,t_mapping(t_address,t_uint256))"
      },
      {
        "astId": 184,
        "contract": "contracts/BasicNft.sol:BasicNft",
        "label": "_operatorApprovals",
        "offset": 0,
        "slot": "1",
        "type": "t_mapping(t_address,t_mapping(t_address,t_bool))"
      },
      {
        "astId": 186,
        "contract": "contracts/BasicNft.sol:BasicNft",
        "label": "_uri",
        "offset": 0,
        "slot": "2",
        "type": "t_string_storage"
      },
      {
        "astId": 7,
        "contract": "contracts/BasicNft.sol:BasicNft",
        "label": "_owner",
        "offset": 0,
        "slot": "3",
        "type": "t_address"
      },
      {
        "astId": 2221,
        "contract": "contracts/BasicNft.sol:BasicNft",
        "label": "marketplace",
        "offset": 0,
        "slot": "4",
        "type": "t_address"
      }
    ],
    "types": {
      "t_address": {
        "encoding": "inplace",
        "label": "address",
        "numberOfBytes": "20"
      },
      "t_bool": {
        "encoding": "inplace",
        "label": "bool",
        "numberOfBytes": "1"
      },
      "t_mapping(t_address,t_bool)": {
        "encoding": "mapping",
        "key": "t_address",
        "label": "mapping(address => bool)",
        "numberOfBytes": "32",
        "value": "t_bool"
      },
      "t_mapping(t_address,t_mapping(t_address,t_bool))": {
        "encoding": "mapping",
        "key": "t_address",
        "label": "mapping(address => mapping(address => bool))",
        "numberOfBytes": "32",
        "value": "t_mapping(t_address,t_bool)"
      },
      "t_mapping(t_address,t_uint256)": {
        "encoding": "mapping",
        "key": "t_address",
        "label": "mapping(address => uint256)",
        "numberOfBytes": "32",
        "value": "t_uint256"
      },
      "t_mapping(t_uint256,t_mapping(t_address,t_uint256))": {
        "encoding": "mapping",
        "key": "t_uint256",
        "label": "mapping(uint256 => mapping(address => uint256))",
        "numberOfBytes": "32",
        "value": "t_mapping(t_address,t_uint256)"
      },
      "t_string_storage": {
        "encoding": "bytes",
        "label": "string",
        "numberOfBytes": "32"
      },
      "t_uint256": {
        "encoding": "inplace",
        "label": "uint256",
        "numberOfBytes": "32"
      }
    }
  }
}