{
  "address": "0xf4dc01fdDf9e4aA9F0113e690d5124740dBaa8cb",
  "abi": [
    {
      "inputs": [],
      "stateMutability": "nonpayable",
      "type": "constructor"
    },
    {
      "inputs": [],
      "name": "NftMarketplace__DontEnoughNft",
      "type": "error"
    },
    {
      "inputs": [],
      "name": "NftMarketplace__NoProceeds",
      "type": "error"
    },
    {
      "inputs": [],
      "name": "NftMarketplace__NotAllowed",
      "type": "error"
    },
    {
      "inputs": [],
      "name": "NftMarketplace__NotApprovedForMarketplace",
      "type": "error"
    },
    {
      "inputs": [],
      "name": "NftMarketplace__NotAvailable",
      "type": "error"
    },
    {
      "inputs": [],
      "name": "NftMarketplace__NotEnoughNft",
      "type": "error"
    },
    {
      "inputs": [],
      "name": "NftMarketplace__NotOwner",
      "type": "error"
    },
    {
      "inputs": [],
      "name": "NftMarketplace__PriceMustBeAboveZero",
      "type": "error"
    },
    {
      "inputs": [
        {
          "internalType": "address",
          "name": "nftAddress",
          "type": "address"
        },
        {
          "internalType": "uint256",
          "name": "tokenId",
          "type": "uint256"
        },
        {
          "internalType": "uint256",
          "name": "price",
          "type": "uint256"
        }
      ],
      "name": "NftMarketplace__PriceNotMet",
      "type": "error"
    },
    {
      "inputs": [],
      "name": "NftMarketplace__TransferFailed",
      "type": "error"
    },
    {
      "anonymous": false,
      "inputs": [
        {
          "indexed": true,
          "internalType": "address",
          "name": "buyer",
          "type": "address"
        },
        {
          "indexed": true,
          "internalType": "address",
          "name": "nftAddress",
          "type": "address"
        },
        {
          "indexed": false,
          "internalType": "uint256",
          "name": "tokenId",
          "type": "uint256"
        },
        {
          "indexed": false,
          "internalType": "uint256",
          "name": "price",
          "type": "uint256"
        },
        {
          "indexed": false,
          "internalType": "uint256",
          "name": "pieces",
          "type": "uint256"
        }
      ],
      "name": "ItemBought",
      "type": "event"
    },
    {
      "anonymous": false,
      "inputs": [
        {
          "indexed": true,
          "internalType": "address",
          "name": "seller",
          "type": "address"
        },
        {
          "indexed": true,
          "internalType": "address",
          "name": "nftAddress",
          "type": "address"
        },
        {
          "indexed": false,
          "internalType": "uint256",
          "name": "tokenId",
          "type": "uint256"
        },
        {
          "indexed": false,
          "internalType": "uint256",
          "name": "pieces",
          "type": "uint256"
        }
      ],
      "name": "ItemCanceled",
      "type": "event"
    },
    {
      "anonymous": false,
      "inputs": [
        {
          "indexed": true,
          "internalType": "address",
          "name": "seller",
          "type": "address"
        },
        {
          "indexed": true,
          "internalType": "address",
          "name": "nftAddress",
          "type": "address"
        },
        {
          "indexed": true,
          "internalType": "uint256",
          "name": "tokenId",
          "type": "uint256"
        },
        {
          "indexed": false,
          "internalType": "uint256",
          "name": "price",
          "type": "uint256"
        },
        {
          "indexed": false,
          "internalType": "uint256",
          "name": "pieces",
          "type": "uint256"
        }
      ],
      "name": "ItemListed",
      "type": "event"
    },
    {
      "anonymous": false,
      "inputs": [
        {
          "indexed": true,
          "internalType": "address",
          "name": "previousOwner",
          "type": "address"
        },
        {
          "indexed": true,
          "internalType": "address",
          "name": "newOwner",
          "type": "address"
        }
      ],
      "name": "OwnershipTransferred",
      "type": "event"
    },
    {
      "inputs": [
        {
          "internalType": "address",
          "name": "nftAddress",
          "type": "address"
        },
        {
          "internalType": "uint256",
          "name": "tokenId",
          "type": "uint256"
        },
        {
          "internalType": "uint256",
          "name": "_piece",
          "type": "uint256"
        }
      ],
      "name": "buyItem",
      "outputs": [],
      "stateMutability": "payable",
      "type": "function"
    },
    {
      "inputs": [
        {
          "internalType": "address",
          "name": "nftAddress",
          "type": "address"
        },
        {
          "internalType": "uint256",
          "name": "tokenId",
          "type": "uint256"
        },
        {
          "internalType": "uint256",
          "name": "_piece",
          "type": "uint256"
        }
      ],
      "name": "cancelListing",
      "outputs": [],
      "stateMutability": "nonpayable",
      "type": "function"
    },
    {
      "inputs": [
        {
          "internalType": "address",
          "name": "nftAddress",
          "type": "address"
        },
        {
          "internalType": "uint256",
          "name": "tokenId",
          "type": "uint256"
        }
      ],
      "name": "getListing",
      "outputs": [
        {
          "components": [
            {
              "internalType": "uint256",
              "name": "price",
              "type": "uint256"
            },
            {
              "internalType": "address",
              "name": "seller",
              "type": "address"
            },
            {
              "internalType": "uint256",
              "name": "piece",
              "type": "uint256"
            }
          ],
          "internalType": "struct NftMarketplace.Listing",
          "name": "",
          "type": "tuple"
        }
      ],
      "stateMutability": "view",
      "type": "function"
    },
    {
      "inputs": [
        {
          "internalType": "address",
          "name": "seller",
          "type": "address"
        }
      ],
      "name": "getProceeds",
      "outputs": [
        {
          "internalType": "uint256",
          "name": "",
          "type": "uint256"
        }
      ],
      "stateMutability": "view",
      "type": "function"
    },
    {
      "inputs": [
        {
          "internalType": "address",
          "name": "nftAddress",
          "type": "address"
        },
        {
          "internalType": "uint256",
          "name": "tokenId",
          "type": "uint256"
        }
      ],
      "name": "getStorage",
      "outputs": [
        {
          "internalType": "uint256",
          "name": "",
          "type": "uint256"
        }
      ],
      "stateMutability": "view",
      "type": "function"
    },
    {
      "inputs": [
        {
          "internalType": "address",
          "name": "_artist",
          "type": "address"
        }
      ],
      "name": "isAnArtistRegistered",
      "outputs": [
        {
          "internalType": "bool",
          "name": "",
          "type": "bool"
        }
      ],
      "stateMutability": "view",
      "type": "function"
    },
    {
      "inputs": [
        {
          "internalType": "address",
          "name": "nftAddress",
          "type": "address"
        },
        {
          "internalType": "uint256",
          "name": "tokenId",
          "type": "uint256"
        },
        {
          "internalType": "uint256",
          "name": "price",
          "type": "uint256"
        },
        {
          "internalType": "uint256",
          "name": "piece",
          "type": "uint256"
        }
      ],
      "name": "listItem",
      "outputs": [],
      "stateMutability": "nonpayable",
      "type": "function"
    },
    {
      "inputs": [],
      "name": "owner",
      "outputs": [
        {
          "internalType": "address",
          "name": "",
          "type": "address"
        }
      ],
      "stateMutability": "view",
      "type": "function"
    },
    {
      "inputs": [
        {
          "internalType": "address",
          "name": "_artist",
          "type": "address"
        }
      ],
      "name": "register",
      "outputs": [],
      "stateMutability": "nonpayable",
      "type": "function"
    },
    {
      "inputs": [],
      "name": "renounceOwnership",
      "outputs": [],
      "stateMutability": "nonpayable",
      "type": "function"
    },
    {
      "inputs": [
        {
          "internalType": "address",
          "name": "newOwner",
          "type": "address"
        }
      ],
      "name": "transferOwnership",
      "outputs": [],
      "stateMutability": "nonpayable",
      "type": "function"
    },
    {
      "inputs": [
        {
          "internalType": "address",
          "name": "_artist",
          "type": "address"
        }
      ],
      "name": "unRegister",
      "outputs": [],
      "stateMutability": "nonpayable",
      "type": "function"
    },
    {
      "inputs": [
        {
          "internalType": "address",
          "name": "nftAddress",
          "type": "address"
        },
        {
          "internalType": "uint256",
          "name": "tokenId",
          "type": "uint256"
        },
        {
          "internalType": "uint256",
          "name": "newPrice",
          "type": "uint256"
        }
      ],
      "name": "updateListing",
      "outputs": [],
      "stateMutability": "nonpayable",
      "type": "function"
    },
    {
      "inputs": [],
      "name": "withdrawProceeds",
      "outputs": [],
      "stateMutability": "nonpayable",
      "type": "function"
    }
  ],
  "transactionHash": "0x338a60d65b2c3c68fa259c2856496cfa59029a209ef528e5bd1973e81b683077",
  "args": [],
  "numDeployments": 2,
  "solcInputHash": "c9ec0564b4fdb89346799059904af9b7",
  "bytecode": "0x608060405234801561001057600080fd5b50600160005561001f3361003e565b336000908152600460205260409020805460ff19166001179055610090565b600180546001600160a01b038381166001600160a01b0319831681179093556040519116919082907f8be0079c531659141344cd1fd0a4f28419497f9722a3daafe3b4186f6b6457e090600090a35050565b610e618061009f6000396000f3fe6080604052600436106100dd5760003560e01c80639038e6931161007f578063d119bf6011610059578063d119bf6014610290578063f2fde38b146102d9578063f6b45c46146102f9578063f772adf11461030c57600080fd5b80639038e69314610215578063ab93a8ee1461022a578063bcb143ef1461027057600080fd5b80634b3320e0116100bb5780634b3320e01461016d578063715018a61461018d57806388700d1c146101a25780638da5cb5b146101ed57600080fd5b806327c95625146100e257806330cfeda9146101045780634420e4861461014d575b600080fd5b3480156100ee57600080fd5b506101026100fd366004610cb2565b61032c565b005b34801561011057600080fd5b5061013a61011f366004610cb2565b6001600160a01b031660009081526003602052604090205490565b6040519081526020015b60405180910390f35b34801561015957600080fd5b50610102610168366004610cb2565b610355565b34801561017957600080fd5b50610102610188366004610cd4565b610381565b34801561019957600080fd5b50610102610493565b3480156101ae57600080fd5b506101c26101bd366004610d07565b6104a7565b60408051825181526020808401516001600160a01b0316908201529181015190820152606001610144565b3480156101f957600080fd5b506001546040516001600160a01b039091168152602001610144565b34801561022157600080fd5b5061010261051f565b34801561023657600080fd5b5061013a610245366004610d07565b6001600160a01b03919091166000908152600260208181526040808420948452939052919020015490565b34801561027c57600080fd5b5061010261028b366004610d31565b6105c9565b34801561029c57600080fd5b506102c96102ab366004610cb2565b6001600160a01b031660009081526004602052604090205460ff1690565b6040519015158152602001610144565b3480156102e557600080fd5b506101026102f4366004610cb2565b610858565b610102610307366004610cd4565b6108d1565b34801561031857600080fd5b50610102610327366004610cd4565b610b39565b610334610bea565b6001600160a01b03166000908152600460205260409020805460ff19169055565b61035d610bea565b6001600160a01b03166000908152600460205260409020805460ff19166001179055565b6001600160a01b0383811660009081526002602090815260408083208684529091529020600101541633146103c9576040516304a4a9db60e51b815260040160405180910390fd5b6001600160a01b0383166000908152600260208181526040808420868552909152909120015481111561040f57604051635ace153960e11b815260040160405180910390fd5b6001600160a01b03831660009081526002602081815260408084208685529091528220018054839290610443908490610d80565b909155505060408051838152602081018390526001600160a01b0385169133917f74114e1af8d4d398357d12468ae7b6a7bf4144bf482db553622d275b6be6f191910160405180910390a3505050565b61049b610bea565b6104a56000610c44565b565b6104d460405180606001604052806000815260200160006001600160a01b03168152602001600081525090565b506001600160a01b0391821660009081526002602081815260408084209484529381529183902083516060810185528154815260018201549095169285019290925201549082015290565b336000908152600360205260409020548061054d576040516333453e2160e11b815260040160405180910390fd5b336000818152600360205260408082208290555190919083908381818185875af1925050503d806000811461059e576040519150601f19603f3d011682016040523d82523d6000602084013e6105a3565b606091505b50509050806105c55760405163502c425d60e11b815260040160405180910390fd5b5050565b600260005414156106215760405162461bcd60e51b815260206004820152601f60248201527f5265656e7472616e637947756172643a207265656e7472616e742063616c6c0060448201526064015b60405180910390fd5b600260009081553381526004602052604090205460ff1661065557604051630ea663a560e01b815260040160405180910390fd5b600082116106765760405163096d7ecf60e01b815260040160405180910390fd5b60405163e985e9c560e01b815233600482015230602482015284906001600160a01b0382169063e985e9c59060440160206040518083038186803b1580156106bd57600080fd5b505afa1580156106d1573d6000803e3d6000fd5b505050506040513d601f19601f820116820180604052508101906106f59190610d97565b610712576040516313e7d28d60e01b815260040160405180910390fd5b604051627eeac760e11b81523360048201526024810185905282906001600160a01b0383169062fdd58e9060440160206040518083038186803b15801561075857600080fd5b505afa15801561076c573d6000803e3d6000fd5b505050506040513d601f19601f820116820180604052508101906107909190610db9565b10156107af5760405163649560b760e01b815260040160405180910390fd5b604080516060810182528481523360208083018281528385018781526001600160a01b038b8116600081815260028087528982208e83528752908990209751885593516001880180546001600160a01b031916919093161790915590519490910193909355835187815290810186905287937f91623fbd639d8d503fe2e77aab334b032313685f1b28c84d838c4b647b1f5d9d910160405180910390a450506001600055505050565b610860610bea565b6001600160a01b0381166108c55760405162461bcd60e51b815260206004820152602660248201527f4f776e61626c653a206e6577206f776e657220697320746865207a65726f206160448201526564647265737360d01b6064820152608401610618565b6108ce81610c44565b50565b600260005414156109245760405162461bcd60e51b815260206004820152601f60248201527f5265656e7472616e637947756172643a207265656e7472616e742063616c6c006044820152606401610618565b600260008181556001600160a01b03808616825260208381526040808420878552825292839020835160608101855281548152600182015490931691830191909152909201549082018190528211156109905760405163a5f90e2360e01b815260040160405180910390fd5b805161099d908390610dd2565b3410156109d957805160405163817ce9f160e01b81526001600160a01b0386166004820152602481018590526044810191909152606401610618565b600a6109e6346009610dd2565b6109f09190610df1565b6020808301516001600160a01b031660009081526003909152604081208054909190610a1d908490610e13565b90915550506001600160a01b03841660009081526002602081815260408084208785529091528220018054849290610a56908490610d80565b90915550506020810151604051637921219560e11b81526001600160a01b039182166004820152336024820152604481018590526064810184905260a06084820152600060a48201529085169063f242432a9060c401600060405180830381600087803b158015610ac657600080fd5b505af1158015610ada573d6000803e3d6000fd5b5050825160408051878152602081019290925281018590526001600160a01b03871692503391507f2991548a0e30c2c69fd9661959d01ee276b5e142c07dfab9d917ddf1c120485e9060600160405180910390a3505060016000555050565b6001600160a01b038381166000908152600260209081526040808320868452909152902060010154163314610b81576040516304a4a9db60e51b815260040160405180910390fd5b6001600160a01b03831660008181526002602081815260408084208785528252928390208581559091015482518581529182015284929133917f91623fbd639d8d503fe2e77aab334b032313685f1b28c84d838c4b647b1f5d9d910160405180910390a4505050565b6001546001600160a01b031633146104a55760405162461bcd60e51b815260206004820181905260248201527f4f776e61626c653a2063616c6c6572206973206e6f7420746865206f776e65726044820152606401610618565b600180546001600160a01b038381166001600160a01b0319831681179093556040519116919082907f8be0079c531659141344cd1fd0a4f28419497f9722a3daafe3b4186f6b6457e090600090a35050565b80356001600160a01b0381168114610cad57600080fd5b919050565b600060208284031215610cc457600080fd5b610ccd82610c96565b9392505050565b600080600060608486031215610ce957600080fd5b610cf284610c96565b95602085013595506040909401359392505050565b60008060408385031215610d1a57600080fd5b610d2383610c96565b946020939093013593505050565b60008060008060808587031215610d4757600080fd5b610d5085610c96565b966020860135965060408601359560600135945092505050565b634e487b7160e01b600052601160045260246000fd5b600082821015610d9257610d92610d6a565b500390565b600060208284031215610da957600080fd5b81518015158114610ccd57600080fd5b600060208284031215610dcb57600080fd5b5051919050565b6000816000190483118215151615610dec57610dec610d6a565b500290565b600082610e0e57634e487b7160e01b600052601260045260246000fd5b500490565b60008219821115610e2657610e26610d6a565b50019056fea2646970667358221220820ec89f0f58313dd0c14ac790977acd985cc24c5656c64c956a7b3dddde4bed64736f6c63430008080033",
  "devdoc": {
    "kind": "dev",
    "methods": {
      "owner()": {
        "details": "Returns the address of the current owner."
      },
      "renounceOwnership()": {
        "details": "Leaves the contract without owner. It will not be possible to call `onlyOwner` functions anymore. Can only be called by the current owner. NOTE: Renouncing ownership will leave the contract without an owner, thereby removing any functionality that is only available to the owner."
      },
      "transferOwnership(address)": {
        "details": "Transfers ownership of the contract to a new account (`newOwner`). Can only be called by the current owner."
      }
    },
    "version": 1
  },
  "userdoc": {
    "kind": "user",
    "methods": {},
    "version": 1
  },
  "storageLayout": {
    "storage": [
      {
        "astId": 123,
        "contract": "contracts/NftMarketplace.sol:NftMarketplace",
        "label": "_status",
        "offset": 0,
        "slot": "0",
        "type": "t_uint256"
      },
      {
        "astId": 7,
        "contract": "contracts/NftMarketplace.sol:NftMarketplace",
        "label": "_owner",
        "offset": 0,
        "slot": "1",
        "type": "t_address"
      },
      {
        "astId": 2397,
        "contract": "contracts/NftMarketplace.sol:NftMarketplace",
        "label": "s_listings",
        "offset": 0,
        "slot": "2",
        "type": "t_mapping(t_address,t_mapping(t_uint256,t_struct(Listing)2356_storage))"
      },
      {
        "astId": 2401,
        "contract": "contracts/NftMarketplace.sol:NftMarketplace",
        "label": "s_proceeds",
        "offset": 0,
        "slot": "3",
        "type": "t_mapping(t_address,t_uint256)"
      },
      {
        "astId": 2405,
        "contract": "contracts/NftMarketplace.sol:NftMarketplace",
        "label": "artist",
        "offset": 0,
        "slot": "4",
        "type": "t_mapping(t_address,t_bool)"
      }
    ],
    "types": {
      "t_address": {
        "encoding": "inplace",
        "label": "address",
        "numberOfBytes": "20"
      },
      "t_bool": {
        "encoding": "inplace",
        "label": "bool",
        "numberOfBytes": "1"
      },
      "t_mapping(t_address,t_bool)": {
        "encoding": "mapping",
        "key": "t_address",
        "label": "mapping(address => bool)",
        "numberOfBytes": "32",
        "value": "t_bool"
      },
      "t_mapping(t_address,t_mapping(t_uint256,t_struct(Listing)2356_storage))": {
        "encoding": "mapping",
        "key": "t_address",
        "label": "mapping(address => mapping(uint256 => struct NftMarketplace.Listing))",
        "numberOfBytes": "32",
        "value": "t_mapping(t_uint256,t_struct(Listing)2356_storage)"
      },
      "t_mapping(t_address,t_uint256)": {
        "encoding": "mapping",
        "key": "t_address",
        "label": "mapping(address => uint256)",
        "numberOfBytes": "32",
        "value": "t_uint256"
      },
      "t_mapping(t_uint256,t_struct(Listing)2356_storage)": {
        "encoding": "mapping",
        "key": "t_uint256",
        "label": "mapping(uint256 => struct NftMarketplace.Listing)",
        "numberOfBytes": "32",
        "value": "t_struct(Listing)2356_storage"
      },
      "t_struct(Listing)2356_storage": {
        "encoding": "inplace",
        "label": "struct NftMarketplace.Listing",
        "members": [
          {
            "astId": 2351,
            "contract": "contracts/NftMarketplace.sol:NftMarketplace",
            "label": "price",
            "offset": 0,
            "slot": "0",
            "type": "t_uint256"
          },
          {
            "astId": 2353,
            "contract": "contracts/NftMarketplace.sol:NftMarketplace",
            "label": "seller",
            "offset": 0,
            "slot": "1",
            "type": "t_address"
          },
          {
            "astId": 2355,
            "contract": "contracts/NftMarketplace.sol:NftMarketplace",
            "label": "piece",
            "offset": 0,
            "slot": "2",
            "type": "t_uint256"
          }
        ],
        "numberOfBytes": "96"
      },
      "t_uint256": {
        "encoding": "inplace",
        "label": "uint256",
        "numberOfBytes": "32"
      }
    }
  }
}